{
  "_format": "hh-sol-artifact-1",
  "contractName": "GatedKnowledgeManager",
  "sourceName": "contracts/GatedKnowledgeManager.sol",
  "abi": [
    {
      "inputs": [
        {
          "internalType": "string",
          "name": "uri",
          "type": "string"
        }
      ],
      "stateMutability": "nonpayable",
      "type": "constructor"
    },
    {
      "inputs": [],
      "name": "ERC721EnumerableForbiddenBatchMint",
      "type": "error"
    },
    {
      "inputs": [
        {
          "internalType": "address",
          "name": "sender",
          "type": "address"
        },
        {
          "internalType": "uint256",
          "name": "tokenId",
          "type": "uint256"
        },
        {
          "internalType": "address",
          "name": "owner",
          "type": "address"
        }
      ],
      "name": "ERC721IncorrectOwner",
      "type": "error"
    },
    {
      "inputs": [
        {
          "internalType": "address",
          "name": "operator",
          "type": "address"
        },
        {
          "internalType": "uint256",
          "name": "tokenId",
          "type": "uint256"
        }
      ],
      "name": "ERC721InsufficientApproval",
      "type": "error"
    },
    {
      "inputs": [
        {
          "internalType": "address",
          "name": "approver",
          "type": "address"
        }
      ],
      "name": "ERC721InvalidApprover",
      "type": "error"
    },
    {
      "inputs": [
        {
          "internalType": "address",
          "name": "operator",
          "type": "address"
        }
      ],
      "name": "ERC721InvalidOperator",
      "type": "error"
    },
    {
      "inputs": [
        {
          "internalType": "address",
          "name": "owner",
          "type": "address"
        }
      ],
      "name": "ERC721InvalidOwner",
      "type": "error"
    },
    {
      "inputs": [
        {
          "internalType": "address",
          "name": "receiver",
          "type": "address"
        }
      ],
      "name": "ERC721InvalidReceiver",
      "type": "error"
    },
    {
      "inputs": [
        {
          "internalType": "address",
          "name": "sender",
          "type": "address"
        }
      ],
      "name": "ERC721InvalidSender",
      "type": "error"
    },
    {
      "inputs": [
        {
          "internalType": "uint256",
          "name": "tokenId",
          "type": "uint256"
        }
      ],
      "name": "ERC721NonexistentToken",
      "type": "error"
    },
    {
      "inputs": [
        {
          "internalType": "address",
          "name": "owner",
          "type": "address"
        },
        {
          "internalType": "uint256",
          "name": "index",
          "type": "uint256"
        }
      ],
      "name": "ERC721OutOfBoundsIndex",
      "type": "error"
    },
    {
      "inputs": [
        {
          "internalType": "uint256",
          "name": "expectedPrice",
          "type": "uint256"
        }
      ],
      "name": "InsufficientFunds",
      "type": "error"
    },
    {
      "inputs": [
        {
          "internalType": "bytes32",
          "name": "accessHash",
          "type": "bytes32"
        }
      ],
      "name": "MintUnavailable",
      "type": "error"
    },
    {
      "anonymous": false,
      "inputs": [
        {
          "indexed": true,
          "internalType": "address",
          "name": "owner",
          "type": "address"
        },
        {
          "indexed": true,
          "internalType": "address",
          "name": "approved",
          "type": "address"
        },
        {
          "indexed": true,
          "internalType": "uint256",
          "name": "tokenId",
          "type": "uint256"
        }
      ],
      "name": "Approval",
      "type": "event"
    },
    {
      "anonymous": false,
      "inputs": [
        {
          "indexed": true,
          "internalType": "address",
          "name": "owner",
          "type": "address"
        },
        {
          "indexed": true,
          "internalType": "address",
          "name": "operator",
          "type": "address"
        },
        {
          "indexed": false,
          "internalType": "bool",
          "name": "approved",
          "type": "bool"
        }
      ],
      "name": "ApprovalForAll",
      "type": "event"
    },
    {
      "anonymous": false,
      "inputs": [
        {
          "indexed": false,
          "internalType": "uint256",
          "name": "_fromTokenId",
          "type": "uint256"
        },
        {
          "indexed": false,
          "internalType": "uint256",
          "name": "_toTokenId",
          "type": "uint256"
        }
      ],
      "name": "BatchMetadataUpdate",
      "type": "event"
    },
    {
      "anonymous": false,
      "inputs": [
        {
          "indexed": false,
          "internalType": "uint256",
          "name": "_tokenId",
          "type": "uint256"
        }
      ],
      "name": "MetadataUpdate",
      "type": "event"
    },
    {
      "anonymous": false,
      "inputs": [
        {
          "indexed": true,
          "internalType": "address",
          "name": "from",
          "type": "address"
        },
        {
          "indexed": true,
          "internalType": "address",
          "name": "to",
          "type": "address"
        },
        {
          "indexed": true,
          "internalType": "uint256",
          "name": "tokenId",
          "type": "uint256"
        }
      ],
      "name": "Transfer",
      "type": "event"
    },
    {
      "inputs": [],
      "name": "_tokenURI",
      "outputs": [
        {
          "internalType": "string",
          "name": "",
          "type": "string"
        }
      ],
      "stateMutability": "view",
      "type": "function"
    },
    {
      "inputs": [
        {
          "internalType": "bytes32",
          "name": "",
          "type": "bytes32"
        }
      ],
      "name": "accessControl",
      "outputs": [
        {
          "internalType": "string",
          "name": "resourceId",
          "type": "string"
        },
        {
          "internalType": "uint256",
          "name": "price",
          "type": "uint256"
        },
        {
          "internalType": "uint32",
          "name": "expirationDuration",
          "type": "uint32"
        }
      ],
      "stateMutability": "view",
      "type": "function"
    },
    {
      "inputs": [
        {
          "internalType": "address",
          "name": "to",
          "type": "address"
        },
        {
          "internalType": "uint256",
          "name": "tokenId",
          "type": "uint256"
        }
      ],
      "name": "approve",
      "outputs": [],
      "stateMutability": "nonpayable",
      "type": "function"
    },
    {
      "inputs": [
        {
          "internalType": "address",
          "name": "owner",
          "type": "address"
        }
      ],
      "name": "balanceOf",
      "outputs": [
        {
          "internalType": "uint256",
          "name": "",
          "type": "uint256"
        }
      ],
      "stateMutability": "view",
      "type": "function"
    },
    {
      "inputs": [
        {
          "internalType": "string",
          "name": "resourceId",
          "type": "string"
        }
      ],
      "name": "delAccess",
      "outputs": [],
      "stateMutability": "nonpayable",
      "type": "function"
    },
    {
      "inputs": [
        {
          "internalType": "address",
          "name": "author",
          "type": "address"
        },
        {
          "internalType": "string",
          "name": "resourceId",
          "type": "string"
        }
      ],
      "name": "existAccess",
      "outputs": [
        {
          "internalType": "bool",
          "name": "",
          "type": "bool"
        }
      ],
      "stateMutability": "view",
      "type": "function"
    },
    {
      "inputs": [
        {
          "internalType": "bytes32",
          "name": "hash",
          "type": "bytes32"
        }
      ],
      "name": "existAccess",
      "outputs": [
        {
          "internalType": "bool",
          "name": "",
          "type": "bool"
        }
      ],
      "stateMutability": "view",
      "type": "function"
    },
    {
      "inputs": [
        {
          "internalType": "address",
          "name": "author",
          "type": "address"
        },
        {
          "internalType": "string",
          "name": "resourceId",
          "type": "string"
        }
      ],
      "name": "getAccessControl",
      "outputs": [
        {
          "internalType": "uint256",
          "name": "price",
          "type": "uint256"
        },
        {
          "internalType": "uint32",
          "name": "expirationTime",
          "type": "uint32"
        }
      ],
      "stateMutability": "view",
      "type": "function"
    },
    {
      "inputs": [
        {
          "internalType": "uint256",
          "name": "tokenId",
          "type": "uint256"
        }
      ],
      "name": "getApproved",
      "outputs": [
        {
          "internalType": "address",
          "name": "",
          "type": "address"
        }
      ],
      "stateMutability": "view",
      "type": "function"
    },
    {
      "inputs": [
        {
          "internalType": "address",
          "name": "author",
          "type": "address"
        },
        {
          "internalType": "string",
          "name": "resourceId",
          "type": "string"
        },
        {
          "internalType": "address",
          "name": "consumer",
          "type": "address"
        }
      ],
      "name": "hasAccess",
      "outputs": [
        {
          "internalType": "bool",
          "name": "response",
          "type": "bool"
        },
        {
          "internalType": "string",
          "name": "message",
          "type": "string"
        }
      ],
      "stateMutability": "view",
      "type": "function"
    },
    {
      "inputs": [
        {
          "internalType": "address",
          "name": "owner",
          "type": "address"
        },
        {
          "internalType": "address",
          "name": "operator",
          "type": "address"
        }
      ],
      "name": "isApprovedForAll",
      "outputs": [
        {
          "internalType": "bool",
          "name": "",
          "type": "bool"
        }
      ],
      "stateMutability": "view",
      "type": "function"
    },
    {
      "inputs": [
        {
          "internalType": "address",
          "name": "author",
          "type": "address"
        },
        {
          "internalType": "string",
          "name": "resourceId",
          "type": "string"
        },
        {
          "internalType": "address",
          "name": "to",
          "type": "address"
        }
      ],
      "name": "mint",
      "outputs": [],
      "stateMutability": "payable",
      "type": "function"
    },
    {
      "inputs": [],
      "name": "name",
      "outputs": [
        {
          "internalType": "string",
          "name": "",
          "type": "string"
        }
      ],
      "stateMutability": "view",
      "type": "function"
    },
    {
      "inputs": [
        {
          "internalType": "uint256",
          "name": "",
          "type": "uint256"
        }
      ],
      "name": "nftData",
      "outputs": [
        {
          "internalType": "bytes32",
          "name": "hash",
          "type": "bytes32"
        },
        {
          "internalType": "string",
          "name": "resourceId",
          "type": "string"
        },
        {
          "internalType": "uint32",
          "name": "expirationTime",
          "type": "uint32"
        }
      ],
      "stateMutability": "view",
      "type": "function"
    },
    {
      "inputs": [
        {
          "internalType": "uint256",
          "name": "tokenId",
          "type": "uint256"
        }
      ],
      "name": "ownerOf",
      "outputs": [
        {
          "internalType": "address",
          "name": "",
          "type": "address"
        }
      ],
      "stateMutability": "view",
      "type": "function"
    },
    {
      "inputs": [
        {
          "internalType": "address",
          "name": "from",
          "type": "address"
        },
        {
          "internalType": "address",
          "name": "to",
          "type": "address"
        },
        {
          "internalType": "uint256",
          "name": "tokenId",
          "type": "uint256"
        }
      ],
      "name": "safeTransferFrom",
      "outputs": [],
      "stateMutability": "nonpayable",
      "type": "function"
    },
    {
      "inputs": [
        {
          "internalType": "address",
          "name": "from",
          "type": "address"
        },
        {
          "internalType": "address",
          "name": "to",
          "type": "address"
        },
        {
          "internalType": "uint256",
          "name": "tokenId",
          "type": "uint256"
        },
        {
          "internalType": "bytes",
          "name": "data",
          "type": "bytes"
        }
      ],
      "name": "safeTransferFrom",
      "outputs": [],
      "stateMutability": "nonpayable",
      "type": "function"
    },
    {
      "inputs": [
        {
          "internalType": "string",
          "name": "resourceId",
          "type": "string"
        },
        {
          "internalType": "uint256",
          "name": "price",
          "type": "uint256"
        },
        {
          "internalType": "uint32",
          "name": "expirationDuration",
          "type": "uint32"
        }
      ],
      "name": "setAccess",
      "outputs": [],
      "stateMutability": "nonpayable",
      "type": "function"
    },
    {
      "inputs": [
        {
          "internalType": "address",
          "name": "operator",
          "type": "address"
        },
        {
          "internalType": "bool",
          "name": "approved",
          "type": "bool"
        }
      ],
      "name": "setApprovalForAll",
      "outputs": [],
      "stateMutability": "nonpayable",
      "type": "function"
    },
    {
      "inputs": [
        {
          "internalType": "bytes4",
          "name": "interfaceId",
          "type": "bytes4"
        }
      ],
      "name": "supportsInterface",
      "outputs": [
        {
          "internalType": "bool",
          "name": "",
          "type": "bool"
        }
      ],
      "stateMutability": "view",
      "type": "function"
    },
    {
      "inputs": [],
      "name": "symbol",
      "outputs": [
        {
          "internalType": "string",
          "name": "",
          "type": "string"
        }
      ],
      "stateMutability": "view",
      "type": "function"
    },
    {
      "inputs": [
        {
          "internalType": "uint256",
          "name": "index",
          "type": "uint256"
        }
      ],
      "name": "tokenByIndex",
      "outputs": [
        {
          "internalType": "uint256",
          "name": "",
          "type": "uint256"
        }
      ],
      "stateMutability": "view",
      "type": "function"
    },
    {
      "inputs": [
        {
          "internalType": "address",
          "name": "owner",
          "type": "address"
        },
        {
          "internalType": "uint256",
          "name": "index",
          "type": "uint256"
        }
      ],
      "name": "tokenOfOwnerByIndex",
      "outputs": [
        {
          "internalType": "uint256",
          "name": "",
          "type": "uint256"
        }
      ],
      "stateMutability": "view",
      "type": "function"
    },
    {
      "inputs": [
        {
          "internalType": "uint256",
          "name": "tokenId",
          "type": "uint256"
        }
      ],
      "name": "tokenURI",
      "outputs": [
        {
          "internalType": "string",
          "name": "",
          "type": "string"
        }
      ],
      "stateMutability": "view",
      "type": "function"
    },
    {
      "inputs": [],
      "name": "totalSupply",
      "outputs": [
        {
          "internalType": "uint256",
          "name": "",
          "type": "uint256"
        }
      ],
      "stateMutability": "view",
      "type": "function"
    },
    {
      "inputs": [
        {
          "internalType": "address",
          "name": "from",
          "type": "address"
        },
        {
          "internalType": "address",
          "name": "to",
          "type": "address"
        },
        {
          "internalType": "uint256",
          "name": "tokenId",
          "type": "uint256"
        }
      ],
      "name": "transferFrom",
      "outputs": [],
      "stateMutability": "nonpayable",
      "type": "function"
    }
  ],
  "bytecode": "0x60806040523480156200001157600080fd5b506040516200284b3803806200284b8339810160408190526200003491620000dc565b6040518060400160405280601c81526020017f4970616c204761746564204b6e6f776c65646765204d616e61676572000000008152506040518060400160405280600381526020016249474960e81b8152508181816000908162000099919062000242565b506001620000a8828262000242565b505050505080600d9081620000be919062000242565b50506200030e565b634e487b7160e01b600052604160045260246000fd5b60006020808385031215620000f057600080fd5b82516001600160401b03808211156200010857600080fd5b818501915085601f8301126200011d57600080fd5b815181811115620001325762000132620000c6565b604051601f8201601f19908116603f011681019083821181831017156200015d576200015d620000c6565b8160405282815288868487010111156200017657600080fd5b600093505b828410156200019a57848401860151818501870152928501926200017b565b600086848301015280965050505050505092915050565b600181811c90821680620001c657607f821691505b602082108103620001e757634e487b7160e01b600052602260045260246000fd5b50919050565b601f8211156200023d576000816000526020600020601f850160051c81016020861015620002185750805b601f850160051c820191505b81811015620002395782815560010162000224565b5050505b505050565b81516001600160401b038111156200025e576200025e620000c6565b62000276816200026f8454620001b1565b84620001ed565b602080601f831160018114620002ae5760008415620002955750858301515b600019600386901b1c1916600185901b17855562000239565b600085815260208120601f198616915b82811015620002df57888601518255948401946001909101908401620002be565b5085821015620002fe5787850151600019600388901b60f8161c191681555b5050505050600190811b01905550565b61252d806200031e6000396000f3fe6080604052600436106101815760003560e01c806370a08231116100d1578063a97ae2231161008a578063c87b56dd11610064578063c87b56dd146104a6578063d10e2e19146104c6578063e985e9c5146104e6578063fa8509c81461050657600080fd5b8063a97ae22314610451578063b4ce37d214610471578063b88d4fde1461048657600080fd5b806370a082311461037e5780638b6df91a1461039e5780638c210975146103cd57806395d89b41146103fc5780639f098c4e14610411578063a22cb4651461043157600080fd5b806323b872dd1161013e57806340735c5b1161011857806340735c5b146102e457806342842e0e1461031e5780634f6ccce71461033e5780636352211e1461035e57600080fd5b806323b872dd146102765780632c94436f146102965780632f745c59146102c457600080fd5b806301ffc9a71461018657806306fdde03146101bb578063081812fc146101dd578063095ea7b3146102155780630aa568111461023757806318160ddd14610257575b600080fd5b34801561019257600080fd5b506101a66101a1366004611d9e565b610519565b60405190151581526020015b60405180910390f35b3480156101c757600080fd5b506101d061052a565b6040516101b29190611e0b565b3480156101e957600080fd5b506101fd6101f8366004611e1e565b6105bc565b6040516001600160a01b0390911681526020016101b2565b34801561022157600080fd5b50610235610230366004611e53565b6105e5565b005b34801561024357600080fd5b50610235610252366004611ec6565b6105f4565b34801561026357600080fd5b506008545b6040519081526020016101b2565b34801561028257600080fd5b50610235610291366004611f2e565b610607565b3480156102a257600080fd5b506102b66102b1366004611f6a565b610691565b6040516101b2929190611fcf565b3480156102d057600080fd5b506102686102df366004611e53565b61091a565b3480156102f057600080fd5b506103046102ff366004611fea565b61097f565b6040805192835263ffffffff9091166020830152016101b2565b34801561032a57600080fd5b50610235610339366004611f2e565b6109bc565b34801561034a57600080fd5b50610268610359366004611e1e565b6109dc565b34801561036a57600080fd5b506101fd610379366004611e1e565b610a35565b34801561038a57600080fd5b5061026861039936600461203d565b610a40565b3480156103aa57600080fd5b506103be6103b9366004611e1e565b610a88565b6040516101b293929190612058565b3480156103d957600080fd5b506103ed6103e8366004611e1e565b610b39565b6040516101b293929190612087565b34801561040857600080fd5b506101d0610bea565b34801561041d57600080fd5b506101a661042c366004611fea565b610bf9565b34801561043d57600080fd5b5061023561044c3660046120c4565b610c73565b34801561045d57600080fd5b5061023561046c3660046120fb565b610c7e565b34801561047d57600080fd5b506101d0610cc1565b34801561049257600080fd5b506102356104a1366004612153565b610d4f565b3480156104b257600080fd5b506101d06104c1366004611e1e565b610d66565b3480156104d257600080fd5b506101a66104e1366004611e1e565b610d71565b3480156104f257600080fd5b506101a661050136600461222f565b610d93565b610235610514366004611f6a565b610dc1565b600061052482610e81565b92915050565b60606000805461053990612262565b80601f016020809104026020016040519081016040528092919081815260200182805461056590612262565b80156105b25780601f10610587576101008083540402835291602001916105b2565b820191906000526020600020905b81548152906001019060200180831161059557829003601f168201915b5050505050905090565b60006105c782610ea6565b506000828152600460205260409020546001600160a01b0316610524565b6105f0828233610edf565b5050565b6106013385858585610eec565b50505050565b6001600160a01b03821661063657604051633250574960e11b8152600060048201526024015b60405180910390fd5b6000610643838333610f99565b9050836001600160a01b0316816001600160a01b031614610601576040516364283d7b60e01b81526001600160a01b038086166004830152602482018490528216604482015260640161062d565b6000606060006106a2878787610fa6565b60405163d10e2e1960e01b815260048101829052909150309063d10e2e1990602401602060405180830381865afa1580156106e1573d6000803e3d6000fd5b505050506040513d601f19601f82011682018060405250810190610705919061229c565b61073f5750506040805180820190915260148152731858d8d95cdcc8191bd95cdb89dd08195e1a5cdd60621b602082015260009150610911565b6000805b61074c86610a40565b81101561089a57600061075f878361091a565b90506000600b60008381526020019081526020016000206040518060600160405290816000820154815260200160018201805461079b90612262565b80601f01602080910402602001604051908101604052809291908181526020018280546107c790612262565b80156108145780601f106107e957610100808354040283529160200191610814565b820191906000526020600020905b8154815290600101906020018083116107f757829003601f168201915b50505091835250506002919091015463ffffffff16602090910152805190915085900361088f57806040015163ffffffff1642111561085857600193505050610892565b60016040518060400160405280600e81526020016d1858d8d95cdcc819dc985b9d195960921b815250965096505050505050610911565b50505b600101610743565b50806108dd5760006040518060400160405280601881526020017f7573657220646f65736e2774206f776e20746865204e4654000000000000000081525061090a565b6000604051806040016040528060118152602001701858d8d95cdcc81a5cc8195e1c1a5c9959607a1b8152505b9350935050505b94509492505050565b600061092583610a40565b82106109565760405163295f44f760e21b81526001600160a01b03841660048201526024810183905260440161062d565b506001600160a01b03919091166000908152600660209081526040808320938352929052205490565b600080600061098f868686610fa6565b6000908152600a60205260409020600181015460029091015490935063ffffffff16915050935093915050565b6109d783838360405180602001604052806000815250610d4f565b505050565b60006109e760085490565b8210610a105760405163295f44f760e21b8152600060048201526024810183905260440161062d565b60088281548110610a2357610a236122b9565b90600052602060002001549050919050565b600061052482610ea6565b60006001600160a01b038216610a6c576040516322718ad960e21b81526000600482015260240161062d565b506001600160a01b031660009081526003602052604090205490565b600a60205260009081526040902080548190610aa390612262565b80601f0160208091040260200160405190810160405280929190818152602001828054610acf90612262565b8015610b1c5780601f10610af157610100808354040283529160200191610b1c565b820191906000526020600020905b815481529060010190602001808311610aff57829003601f168201915b50505050600183015460029093015491929163ffffffff16905083565b600b6020526000908152604090208054600182018054919291610b5b90612262565b80601f0160208091040260200160405190810160405280929190818152602001828054610b8790612262565b8015610bd45780601f10610ba957610100808354040283529160200191610bd4565b820191906000526020600020905b815481529060010190602001808311610bb757829003601f168201915b5050506002909301549192505063ffffffff1683565b60606001805461053990612262565b60003063d10e2e19610c0c868686610fa6565b6040518263ffffffff1660e01b8152600401610c2a91815260200190565b602060405180830381865afa158015610c47573d6000803e3d6000fd5b505050506040513d601f19601f82011682018060405250810190610c6b919061229c565b949350505050565b6105f0338383610fdc565b6000610c8b338484610fa6565b6000818152600a60205260408120919250610ca68282611d32565b5060006001820155600201805463ffffffff19169055505050565b600d8054610cce90612262565b80601f0160208091040260200160405190810160405280929190818152602001828054610cfa90612262565b8015610d475780601f10610d1c57610100808354040283529160200191610d47565b820191906000526020600020905b815481529060010190602001808311610d2a57829003601f168201915b505050505081565b610d5a848484610607565b6106018484848461107b565b60606105248261119d565b6000818152600a602052604081208054610d8a90612262565b15159392505050565b6001600160a01b03918216600090815260056020908152604080832093909416825291909152205460ff1690565b610dcd848484846112a6565b60006001610dda60085490565b610de491906122e5565b9050610e7a81600d8054610df790612262565b80601f0160208091040260200160405190810160405280929190818152602001828054610e2390612262565b8015610e705780601f10610e4557610100808354040283529160200191610e70565b820191906000526020600020905b815481529060010190602001808311610e5357829003601f168201915b50505050506114bc565b5050505050565b60006001600160e01b03198216632483248360e11b148061052457506105248261150c565b6000818152600260205260408120546001600160a01b03168061052457604051637e27328960e01b81526004810184905260240161062d565b6109d78383836001611517565b6000610ef9868686610fa6565b6040805160806020601f890181900402820181019092526060810187815292935091829188908890819085018382808284376000920182905250938552505050602080830187905263ffffffff8616604093840152848252600a90522081518190610f649082612348565b50602082015160018201556040909101516002909101805463ffffffff191663ffffffff909216919091179055505050505050565b6000610c6b84848461161d565b6000838383604051602001610fbd93929190612408565b6040516020818303038152906040528051906020012090509392505050565b6001600160a01b03821661100e57604051630b61174360e31b81526001600160a01b038316600482015260240161062d565b6001600160a01b03838116600081815260056020908152604080832094871680845294825291829020805460ff191686151590811790915591519182527f17307eab39ab6107e8899845ad3d59bd9653f200f220920489ca2b5937696c31910160405180910390a3505050565b6001600160a01b0383163b1561060157604051630a85bd0160e11b81526001600160a01b0384169063150b7a02906110bd903390889087908790600401612434565b6020604051808303816000875af19250505080156110f8575060408051601f3d908101601f191682019092526110f591810190612471565b60015b611161573d808015611126576040519150601f19603f3d011682016040523d82523d6000602084013e61112b565b606091505b50805160000361115957604051633250574960e11b81526001600160a01b038516600482015260240161062d565b805181602001fd5b6001600160e01b03198116630a85bd0160e11b14610e7a57604051633250574960e11b81526001600160a01b038516600482015260240161062d565b60606111a882610ea6565b506000828152600c6020526040812080546111c290612262565b80601f01602080910402602001604051908101604052809291908181526020018280546111ee90612262565b801561123b5780601f106112105761010080835404028352916020019161123b565b820191906000526020600020905b81548152906001019060200180831161121e57829003601f168201915b50505050509050600061125960408051602081019091526000815290565b9050805160000361126b575092915050565b81511561129d57808260405160200161128592919061248e565b60405160208183030381529060405292505050919050565b610c6b8461162a565b60006112b3858585610fa6565b60405163d10e2e1960e01b815260048101829052909150309063d10e2e1990602401602060405180830381865afa1580156112f2573d6000803e3d6000fd5b505050506040513d601f19601f82011682018060405250810190611316919061229c565b61133657604051636bbe423d60e11b81526004810182905260240161062d565b6000818152600a60205260409020600101543481111561136c576040516365bc667160e11b81526004810182905260240161062d565b600061137760085490565b90506040518060600160405280848152602001600a600086815260200190815260200160002060000180546113ab90612262565b80601f01602080910402602001604051908101604052809291908181526020018280546113d790612262565b80156114245780601f106113f957610100808354040283529160200191611424565b820191906000526020600020905b81548152906001019060200180831161140757829003601f168201915b50505091835250506000858152600a602090815260409091206002015491019061145590429063ffffffff166124bd565b63ffffffff1690526000828152600b60209081526040909120825181559082015160018201906114859082612348565b50604091909101516002909101805463ffffffff191663ffffffff9092169190911790556114b3848261169f565b50505050505050565b6000828152600c602052604090206114d48282612348565b506040518281527ff8e1a15aba9398e019f0b49df1a4fde98ee17ae345cb5f6b5e2c27f5033e8ce79060200160405180910390a15050565b6000610524826116b9565b808061152b57506001600160a01b03821615155b156115ed57600061153b84610ea6565b90506001600160a01b038316158015906115675750826001600160a01b0316816001600160a01b031614155b801561157a57506115788184610d93565b155b156115a35760405163a9fbf51f60e01b81526001600160a01b038416600482015260240161062d565b81156115eb5783856001600160a01b0316826001600160a01b03167f8c5be1e5ebec7d5bd14f71427d1e84f3dd0314c0f7b2291e5b200ac8c7c3b92560405160405180910390a45b505b5050600090815260046020526040902080546001600160a01b0319166001600160a01b0392909216919091179055565b6000610c6b8484846116de565b606061163582610ea6565b50600061164d60408051602081019091526000815290565b9050600081511161166d5760405180602001604052806000815250611698565b80611677846117ab565b60405160200161168892919061248e565b6040516020818303038152906040525b9392505050565b6105f082826040518060200160405280600081525061183e565b60006001600160e01b0319821663780e9d6360e01b1480610524575061052482611855565b6000806116ec8585856118a5565b90506001600160a01b0381166117495761174484600880546000838152600960205260408120829055600182018355919091527ff3f7a9fe364faab93b216da50a3214154f22a0a2b415b23a84c8169e8b636ee30155565b61176c565b846001600160a01b0316816001600160a01b03161461176c5761176c818561199e565b6001600160a01b0385166117885761178384611a2f565b610c6b565b846001600160a01b0316816001600160a01b031614610c6b57610c6b8585611ade565b606060006117b883611b2e565b600101905060008167ffffffffffffffff8111156117d8576117d861213d565b6040519080825280601f01601f191660200182016040528015611802576020820181803683370190505b5090508181016020015b600019016f181899199a1a9b1b9c1cb0b131b232b360811b600a86061a8153600a850494508461180c57509392505050565b6118488383611c06565b6109d7600084848461107b565b60006001600160e01b031982166380ac58cd60e01b148061188657506001600160e01b03198216635b5e139f60e01b145b8061052457506301ffc9a760e01b6001600160e01b0319831614610524565b6000828152600260205260408120546001600160a01b03908116908316156118d2576118d2818486611c6b565b6001600160a01b03811615611910576118ef600085600080611517565b6001600160a01b038116600090815260036020526040902080546000190190555b6001600160a01b0385161561193f576001600160a01b0385166000908152600360205260409020805460010190555b60008481526002602052604080822080546001600160a01b0319166001600160a01b0389811691821790925591518793918516917fddf252ad1be2c89b69c2b068fc378daa952ba7f163c4a11628f55a4df523b3ef91a4949350505050565b60006119a983610a40565b6000838152600760205260409020549091508082146119fc576001600160a01b03841660009081526006602090815260408083208584528252808320548484528184208190558352600790915290208190555b5060009182526007602090815260408084208490556001600160a01b039094168352600681528383209183525290812055565b600854600090611a41906001906122e5565b60008381526009602052604081205460088054939450909284908110611a6957611a696122b9565b906000526020600020015490508060088381548110611a8a57611a8a6122b9565b6000918252602080832090910192909255828152600990915260408082208490558582528120556008805480611ac257611ac26124e1565b6001900381819060005260206000200160009055905550505050565b60006001611aeb84610a40565b611af591906122e5565b6001600160a01b039093166000908152600660209081526040808320868452825280832085905593825260079052919091209190915550565b60008072184f03e93ff9f4daa797ed6e38ed64bf6a1f0160401b8310611b6d5772184f03e93ff9f4daa797ed6e38ed64bf6a1f0160401b830492506040015b6d04ee2d6d415b85acef81000000008310611b99576d04ee2d6d415b85acef8100000000830492506020015b662386f26fc100008310611bb757662386f26fc10000830492506010015b6305f5e1008310611bcf576305f5e100830492506008015b6127108310611be357612710830492506004015b60648310611bf5576064830492506002015b600a83106105245760010192915050565b6001600160a01b038216611c3057604051633250574960e11b81526000600482015260240161062d565b6000611c3e83836000610f99565b90506001600160a01b038116156109d7576040516339e3563760e11b81526000600482015260240161062d565b611c76838383611ccf565b6109d7576001600160a01b038316611ca457604051637e27328960e01b81526004810182905260240161062d565b60405163177e802f60e01b81526001600160a01b03831660048201526024810182905260440161062d565b60006001600160a01b03831615801590610c6b5750826001600160a01b0316846001600160a01b03161480611d095750611d098484610d93565b80610c6b5750506000908152600460205260409020546001600160a01b03908116911614919050565b508054611d3e90612262565b6000825580601f10611d4e575050565b601f016020900490600052602060002090810190611d6c9190611d6f565b50565b5b80821115611d845760008155600101611d70565b5090565b6001600160e01b031981168114611d6c57600080fd5b600060208284031215611db057600080fd5b813561169881611d88565b60005b83811015611dd6578181015183820152602001611dbe565b50506000910152565b60008151808452611df7816020860160208601611dbb565b601f01601f19169290920160200192915050565b6020815260006116986020830184611ddf565b600060208284031215611e3057600080fd5b5035919050565b80356001600160a01b0381168114611e4e57600080fd5b919050565b60008060408385031215611e6657600080fd5b611e6f83611e37565b946020939093013593505050565b60008083601f840112611e8f57600080fd5b50813567ffffffffffffffff811115611ea757600080fd5b602083019150836020828501011115611ebf57600080fd5b9250929050565b60008060008060608587031215611edc57600080fd5b843567ffffffffffffffff811115611ef357600080fd5b611eff87828801611e7d565b90955093505060208501359150604085013563ffffffff81168114611f2357600080fd5b939692955090935050565b600080600060608486031215611f4357600080fd5b611f4c84611e37565b9250611f5a60208501611e37565b9150604084013590509250925092565b60008060008060608587031215611f8057600080fd5b611f8985611e37565b9350602085013567ffffffffffffffff811115611fa557600080fd5b611fb187828801611e7d565b9094509250611fc4905060408601611e37565b905092959194509250565b8215158152604060208201526000610c6b6040830184611ddf565b600080600060408486031215611fff57600080fd5b61200884611e37565b9250602084013567ffffffffffffffff81111561202457600080fd5b61203086828701611e7d565b9497909650939450505050565b60006020828403121561204f57600080fd5b61169882611e37565b60608152600061206b6060830186611ddf565b905083602083015263ffffffff83166040830152949350505050565b8381526060602082015260006120a06060830185611ddf565b905063ffffffff83166040830152949350505050565b8015158114611d6c57600080fd5b600080604083850312156120d757600080fd5b6120e083611e37565b915060208301356120f0816120b6565b809150509250929050565b6000806020838503121561210e57600080fd5b823567ffffffffffffffff81111561212557600080fd5b61213185828601611e7d565b90969095509350505050565b634e487b7160e01b600052604160045260246000fd5b6000806000806080858703121561216957600080fd5b61217285611e37565b935061218060208601611e37565b925060408501359150606085013567ffffffffffffffff808211156121a457600080fd5b818701915087601f8301126121b857600080fd5b8135818111156121ca576121ca61213d565b604051601f8201601f19908116603f011681019083821181831017156121f2576121f261213d565b816040528281528a602084870101111561220b57600080fd5b82602086016020830137600060208483010152809550505050505092959194509250565b6000806040838503121561224257600080fd5b61224b83611e37565b915061225960208401611e37565b90509250929050565b600181811c9082168061227657607f821691505b60208210810361229657634e487b7160e01b600052602260045260246000fd5b50919050565b6000602082840312156122ae57600080fd5b8151611698816120b6565b634e487b7160e01b600052603260045260246000fd5b634e487b7160e01b600052601160045260246000fd5b81810381811115610524576105246122cf565b601f8211156109d7576000816000526020600020601f850160051c810160208610156123215750805b601f850160051c820191505b818110156123405782815560010161232d565b505050505050565b815167ffffffffffffffff8111156123625761236261213d565b612376816123708454612262565b846122f8565b602080601f8311600181146123ab57600084156123935750858301515b600019600386901b1c1916600185901b178555612340565b600085815260208120601f198616915b828110156123da578886015182559484019460019091019084016123bb565b50858210156123f85787850151600019600388901b60f8161c191681555b5050505050600190811b01905550565b6bffffffffffffffffffffffff198460601b168152818360148301376000910160140190815292915050565b6001600160a01b038581168252841660208201526040810183905260806060820181905260009061246790830184611ddf565b9695505050505050565b60006020828403121561248357600080fd5b815161169881611d88565b600083516124a0818460208801611dbb565b8351908301906124b4818360208801611dbb565b01949350505050565b63ffffffff8181168382160190808211156124da576124da6122cf565b5092915050565b634e487b7160e01b600052603160045260246000fdfea2646970667358221220d8e08340c3a88901cb66062a074765d9bff05c0af7d626139c73ddcbed1d26e764736f6c63430008180033",
  "linkReferences": {},
  "deployedLinkReferences": {}
}