{
  "_format": "hh-sol-artifact-1",
  "contractName": "GatedKnowledgeManager",
  "sourceName": "contracts/GatedKnowledgeManager.sol",
  "abi": [
    {
      "inputs": [
        {
          "internalType": "string",
          "name": "uri",
          "type": "string"
        }
      ],
      "stateMutability": "nonpayable",
      "type": "constructor"
    },
    {
      "inputs": [],
      "name": "ERC721EnumerableForbiddenBatchMint",
      "type": "error"
    },
    {
      "inputs": [
        {
          "internalType": "address",
          "name": "sender",
          "type": "address"
        },
        {
          "internalType": "uint256",
          "name": "tokenId",
          "type": "uint256"
        },
        {
          "internalType": "address",
          "name": "owner",
          "type": "address"
        }
      ],
      "name": "ERC721IncorrectOwner",
      "type": "error"
    },
    {
      "inputs": [
        {
          "internalType": "address",
          "name": "operator",
          "type": "address"
        },
        {
          "internalType": "uint256",
          "name": "tokenId",
          "type": "uint256"
        }
      ],
      "name": "ERC721InsufficientApproval",
      "type": "error"
    },
    {
      "inputs": [
        {
          "internalType": "address",
          "name": "approver",
          "type": "address"
        }
      ],
      "name": "ERC721InvalidApprover",
      "type": "error"
    },
    {
      "inputs": [
        {
          "internalType": "address",
          "name": "operator",
          "type": "address"
        }
      ],
      "name": "ERC721InvalidOperator",
      "type": "error"
    },
    {
      "inputs": [
        {
          "internalType": "address",
          "name": "owner",
          "type": "address"
        }
      ],
      "name": "ERC721InvalidOwner",
      "type": "error"
    },
    {
      "inputs": [
        {
          "internalType": "address",
          "name": "receiver",
          "type": "address"
        }
      ],
      "name": "ERC721InvalidReceiver",
      "type": "error"
    },
    {
      "inputs": [
        {
          "internalType": "address",
          "name": "sender",
          "type": "address"
        }
      ],
      "name": "ERC721InvalidSender",
      "type": "error"
    },
    {
      "inputs": [
        {
          "internalType": "uint256",
          "name": "tokenId",
          "type": "uint256"
        }
      ],
      "name": "ERC721NonexistentToken",
      "type": "error"
    },
    {
      "inputs": [
        {
          "internalType": "address",
          "name": "owner",
          "type": "address"
        },
        {
          "internalType": "uint256",
          "name": "index",
          "type": "uint256"
        }
      ],
      "name": "ERC721OutOfBoundsIndex",
      "type": "error"
    },
    {
      "inputs": [
        {
          "internalType": "bytes32",
          "name": "accessHash",
          "type": "bytes32"
        }
      ],
      "name": "MintUnavailable",
      "type": "error"
    },
    {
      "anonymous": false,
      "inputs": [
        {
          "indexed": true,
          "internalType": "address",
          "name": "owner",
          "type": "address"
        },
        {
          "indexed": true,
          "internalType": "address",
          "name": "approved",
          "type": "address"
        },
        {
          "indexed": true,
          "internalType": "uint256",
          "name": "tokenId",
          "type": "uint256"
        }
      ],
      "name": "Approval",
      "type": "event"
    },
    {
      "anonymous": false,
      "inputs": [
        {
          "indexed": true,
          "internalType": "address",
          "name": "owner",
          "type": "address"
        },
        {
          "indexed": true,
          "internalType": "address",
          "name": "operator",
          "type": "address"
        },
        {
          "indexed": false,
          "internalType": "bool",
          "name": "approved",
          "type": "bool"
        }
      ],
      "name": "ApprovalForAll",
      "type": "event"
    },
    {
      "anonymous": false,
      "inputs": [
        {
          "indexed": false,
          "internalType": "uint256",
          "name": "_fromTokenId",
          "type": "uint256"
        },
        {
          "indexed": false,
          "internalType": "uint256",
          "name": "_toTokenId",
          "type": "uint256"
        }
      ],
      "name": "BatchMetadataUpdate",
      "type": "event"
    },
    {
      "anonymous": false,
      "inputs": [
        {
          "indexed": false,
          "internalType": "uint256",
          "name": "_tokenId",
          "type": "uint256"
        }
      ],
      "name": "MetadataUpdate",
      "type": "event"
    },
    {
      "anonymous": false,
      "inputs": [
        {
          "indexed": true,
          "internalType": "address",
          "name": "from",
          "type": "address"
        },
        {
          "indexed": true,
          "internalType": "address",
          "name": "to",
          "type": "address"
        },
        {
          "indexed": true,
          "internalType": "uint256",
          "name": "tokenId",
          "type": "uint256"
        }
      ],
      "name": "Transfer",
      "type": "event"
    },
    {
      "inputs": [],
      "name": "_tokenURI",
      "outputs": [
        {
          "internalType": "string",
          "name": "",
          "type": "string"
        }
      ],
      "stateMutability": "view",
      "type": "function"
    },
    {
      "inputs": [
        {
          "internalType": "bytes32",
          "name": "hash",
          "type": "bytes32"
        }
      ],
      "name": "accessControl",
      "outputs": [
        {
          "internalType": "uint256",
          "name": "contentId",
          "type": "uint256"
        },
        {
          "internalType": "uint256",
          "name": "price",
          "type": "uint256"
        },
        {
          "internalType": "uint32",
          "name": "expirationTime",
          "type": "uint32"
        }
      ],
      "stateMutability": "view",
      "type": "function"
    },
    {
      "inputs": [
        {
          "internalType": "address",
          "name": "to",
          "type": "address"
        },
        {
          "internalType": "uint256",
          "name": "tokenId",
          "type": "uint256"
        }
      ],
      "name": "approve",
      "outputs": [],
      "stateMutability": "nonpayable",
      "type": "function"
    },
    {
      "inputs": [
        {
          "internalType": "address",
          "name": "owner",
          "type": "address"
        }
      ],
      "name": "balanceOf",
      "outputs": [
        {
          "internalType": "uint256",
          "name": "",
          "type": "uint256"
        }
      ],
      "stateMutability": "view",
      "type": "function"
    },
    {
      "inputs": [
        {
          "internalType": "uint256",
          "name": "contentId",
          "type": "uint256"
        }
      ],
      "name": "delAccess",
      "outputs": [],
      "stateMutability": "nonpayable",
      "type": "function"
    },
    {
      "inputs": [
        {
          "internalType": "bytes32",
          "name": "hash",
          "type": "bytes32"
        }
      ],
      "name": "existAccess",
      "outputs": [
        {
          "internalType": "bool",
          "name": "",
          "type": "bool"
        }
      ],
      "stateMutability": "view",
      "type": "function"
    },
    {
      "inputs": [
        {
          "internalType": "uint256",
          "name": "tokenId",
          "type": "uint256"
        }
      ],
      "name": "getApproved",
      "outputs": [
        {
          "internalType": "address",
          "name": "",
          "type": "address"
        }
      ],
      "stateMutability": "view",
      "type": "function"
    },
    {
      "inputs": [
        {
          "internalType": "address",
          "name": "author",
          "type": "address"
        },
        {
          "internalType": "uint256",
          "name": "contentId",
          "type": "uint256"
        },
        {
          "internalType": "address",
          "name": "consumer",
          "type": "address"
        }
      ],
      "name": "hasAccess",
      "outputs": [
        {
          "internalType": "bool",
          "name": "",
          "type": "bool"
        }
      ],
      "stateMutability": "view",
      "type": "function"
    },
    {
      "inputs": [
        {
          "internalType": "address",
          "name": "owner",
          "type": "address"
        },
        {
          "internalType": "address",
          "name": "operator",
          "type": "address"
        }
      ],
      "name": "isApprovedForAll",
      "outputs": [
        {
          "internalType": "bool",
          "name": "",
          "type": "bool"
        }
      ],
      "stateMutability": "view",
      "type": "function"
    },
    {
      "inputs": [
        {
          "internalType": "address",
          "name": "author",
          "type": "address"
        },
        {
          "internalType": "uint256",
          "name": "contentId",
          "type": "uint256"
        },
        {
          "internalType": "address",
          "name": "to",
          "type": "address"
        }
      ],
      "name": "mint",
      "outputs": [],
      "stateMutability": "nonpayable",
      "type": "function"
    },
    {
      "inputs": [],
      "name": "name",
      "outputs": [
        {
          "internalType": "string",
          "name": "",
          "type": "string"
        }
      ],
      "stateMutability": "view",
      "type": "function"
    },
    {
      "inputs": [
        {
          "internalType": "uint256",
          "name": "",
          "type": "uint256"
        }
      ],
      "name": "nftData",
      "outputs": [
        {
          "internalType": "bytes32",
          "name": "hash",
          "type": "bytes32"
        },
        {
          "internalType": "uint256",
          "name": "contentId",
          "type": "uint256"
        },
        {
          "internalType": "uint32",
          "name": "expirationTime",
          "type": "uint32"
        }
      ],
      "stateMutability": "view",
      "type": "function"
    },
    {
      "inputs": [
        {
          "internalType": "uint256",
          "name": "tokenId",
          "type": "uint256"
        }
      ],
      "name": "ownerOf",
      "outputs": [
        {
          "internalType": "address",
          "name": "",
          "type": "address"
        }
      ],
      "stateMutability": "view",
      "type": "function"
    },
    {
      "inputs": [
        {
          "internalType": "address",
          "name": "from",
          "type": "address"
        },
        {
          "internalType": "address",
          "name": "to",
          "type": "address"
        },
        {
          "internalType": "uint256",
          "name": "tokenId",
          "type": "uint256"
        }
      ],
      "name": "safeTransferFrom",
      "outputs": [],
      "stateMutability": "nonpayable",
      "type": "function"
    },
    {
      "inputs": [
        {
          "internalType": "address",
          "name": "from",
          "type": "address"
        },
        {
          "internalType": "address",
          "name": "to",
          "type": "address"
        },
        {
          "internalType": "uint256",
          "name": "tokenId",
          "type": "uint256"
        },
        {
          "internalType": "bytes",
          "name": "data",
          "type": "bytes"
        }
      ],
      "name": "safeTransferFrom",
      "outputs": [],
      "stateMutability": "nonpayable",
      "type": "function"
    },
    {
      "inputs": [
        {
          "internalType": "uint256",
          "name": "contentId",
          "type": "uint256"
        },
        {
          "internalType": "uint256",
          "name": "price",
          "type": "uint256"
        },
        {
          "internalType": "uint32",
          "name": "expirationTime",
          "type": "uint32"
        }
      ],
      "name": "setAccess",
      "outputs": [],
      "stateMutability": "nonpayable",
      "type": "function"
    },
    {
      "inputs": [
        {
          "internalType": "address",
          "name": "operator",
          "type": "address"
        },
        {
          "internalType": "bool",
          "name": "approved",
          "type": "bool"
        }
      ],
      "name": "setApprovalForAll",
      "outputs": [],
      "stateMutability": "nonpayable",
      "type": "function"
    },
    {
      "inputs": [
        {
          "internalType": "bytes4",
          "name": "interfaceId",
          "type": "bytes4"
        }
      ],
      "name": "supportsInterface",
      "outputs": [
        {
          "internalType": "bool",
          "name": "",
          "type": "bool"
        }
      ],
      "stateMutability": "view",
      "type": "function"
    },
    {
      "inputs": [],
      "name": "symbol",
      "outputs": [
        {
          "internalType": "string",
          "name": "",
          "type": "string"
        }
      ],
      "stateMutability": "view",
      "type": "function"
    },
    {
      "inputs": [
        {
          "internalType": "uint256",
          "name": "index",
          "type": "uint256"
        }
      ],
      "name": "tokenByIndex",
      "outputs": [
        {
          "internalType": "uint256",
          "name": "",
          "type": "uint256"
        }
      ],
      "stateMutability": "view",
      "type": "function"
    },
    {
      "inputs": [
        {
          "internalType": "address",
          "name": "owner",
          "type": "address"
        },
        {
          "internalType": "uint256",
          "name": "index",
          "type": "uint256"
        }
      ],
      "name": "tokenOfOwnerByIndex",
      "outputs": [
        {
          "internalType": "uint256",
          "name": "",
          "type": "uint256"
        }
      ],
      "stateMutability": "view",
      "type": "function"
    },
    {
      "inputs": [
        {
          "internalType": "uint256",
          "name": "tokenId",
          "type": "uint256"
        }
      ],
      "name": "tokenURI",
      "outputs": [
        {
          "internalType": "string",
          "name": "",
          "type": "string"
        }
      ],
      "stateMutability": "view",
      "type": "function"
    },
    {
      "inputs": [],
      "name": "totalSupply",
      "outputs": [
        {
          "internalType": "uint256",
          "name": "",
          "type": "uint256"
        }
      ],
      "stateMutability": "view",
      "type": "function"
    },
    {
      "inputs": [
        {
          "internalType": "address",
          "name": "from",
          "type": "address"
        },
        {
          "internalType": "address",
          "name": "to",
          "type": "address"
        },
        {
          "internalType": "uint256",
          "name": "tokenId",
          "type": "uint256"
        }
      ],
      "name": "transferFrom",
      "outputs": [],
      "stateMutability": "nonpayable",
      "type": "function"
    }
  ],
  "bytecode": "0x60806040523480156200001157600080fd5b5060405162001ee438038062001ee48339810160408190526200003491620000dc565b6040518060400160405280601c81526020017f4970616c204761746564204b6e6f776c65646765204d616e61676572000000008152506040518060400160405280600381526020016249474960e81b8152508181816000908162000099919062000242565b506001620000a8828262000242565b505050505080600d9081620000be919062000242565b50506200030e565b634e487b7160e01b600052604160045260246000fd5b60006020808385031215620000f057600080fd5b82516001600160401b03808211156200010857600080fd5b818501915085601f8301126200011d57600080fd5b815181811115620001325762000132620000c6565b604051601f8201601f19908116603f011681019083821181831017156200015d576200015d620000c6565b8160405282815288868487010111156200017657600080fd5b600093505b828410156200019a57848401860151818501870152928501926200017b565b600086848301015280965050505050505092915050565b600181811c90821680620001c657607f821691505b602082108103620001e757634e487b7160e01b600052602260045260246000fd5b50919050565b601f8211156200023d576000816000526020600020601f850160051c81016020861015620002185750805b601f850160051c820191505b81811015620002395782815560010162000224565b5050505b505050565b81516001600160401b038111156200025e576200025e620000c6565b62000276816200026f8454620001b1565b84620001ed565b602080601f831160018114620002ae5760008415620002955750858301515b600019600386901b1c1916600185901b17855562000239565b600085815260208120601f198616915b82811015620002df57888601518255948401946001909101908401620002be565b5085821015620002fe5787850151600019600388901b60f8161c191681555b5050505050600190811b01905550565b611bc6806200031e6000396000f3fe608060405234801561001057600080fd5b50600436106101575760003560e01c80634f6ccce7116100c3578063a22cb4651161007c578063a22cb4651461033c578063b4ce37d21461034f578063b88d4fde14610357578063c87b56dd1461036a578063d10e2e191461037d578063e985e9c51461039f57600080fd5b80634f6ccce7146102705780636352211e1461028357806370a08231146102965780638b6df91a146102a95780638c210975146102ff57806395d89b411461033457600080fd5b80630d4d1513116101155780630d4d1513146101ff57806318160ddd1461021257806323b872dd146102245780632f745c5914610237578063362a3f8c1461024a57806342842e0e1461025d57600080fd5b8062fda7a71461015c57806301ffc9a71461017157806306fdde0314610199578063081812fc146101ae578063095ea7b3146101d957806309a937fb146101ec575b600080fd5b61016f61016a36600461161c565b6103b2565b005b61018461017f36600461164e565b6103e9565b60405190151581526020015b60405180910390f35b6101a16103fa565b60405161019091906116bb565b6101c16101bc36600461161c565b61048c565b6040516001600160a01b039091168152602001610190565b61016f6101e73660046116ea565b6104b5565b6101846101fa366004611714565b6104c4565b61016f61020d366004611714565b610526565b6008545b604051908152602001610190565b61016f610232366004611750565b6105e4565b6102166102453660046116ea565b61066e565b61016f61025836600461178c565b6106d3565b61016f61026b366004611750565b6106e4565b61021661027e36600461161c565b6106ff565b6101c161029136600461161c565b610758565b6102166102a43660046117ce565b610763565b6102de6102b736600461161c565b600a6020526000908152604090208054600182015460029092015490919063ffffffff1683565b60408051938452602084019290925263ffffffff1690820152606001610190565b6102de61030d36600461161c565b600b6020526000908152604090208054600182015460029092015490919063ffffffff1683565b6101a16107ab565b61016f61034a3660046117f7565b6107ba565b6101a16107c5565b61016f610365366004611844565b610853565b6101a161037836600461161c565b61086a565b61018461038b36600461161c565b6000908152600a6020526040902054151590565b6101846103ad366004611920565b610875565b60006103be33836108a3565b6000908152600a602052604081208181556001810191909155600201805463ffffffff191690555050565b60006103f4826108ea565b92915050565b60606000805461040990611953565b80601f016020809104026020016040519081016040528092919081815260200182805461043590611953565b80156104825780601f1061045757610100808354040283529160200191610482565b820191906000526020600020905b81548152906001019060200180831161046557829003601f168201915b5050505050905090565b60006104978261090f565b506000828152600460205260409020546001600160a01b03166103f4565b6104c0828233610948565b5050565b6000805b6104d185610763565b811015610519576104e285856108a3565b600b60006104f0868561066e565b8152602001908152602001600020600001540361051157600191505061051f565b6001016104c8565b50600090505b9392505050565b610531838383610955565b6000600161053e60085490565b610548919061198d565b90506105de81600d805461055b90611953565b80601f016020809104026020016040519081016040528092919081815260200182805461058790611953565b80156105d45780601f106105a9576101008083540402835291602001916105d4565b820191906000526020600020905b8154815290600101906020018083116105b757829003601f168201915b5050505050610a64565b50505050565b6001600160a01b03821661061357604051633250574960e11b8152600060048201526024015b60405180910390fd5b6000610620838333610ab4565b9050836001600160a01b0316816001600160a01b0316146105de576040516364283d7b60e01b81526001600160a01b038086166004830152602482018490528216604482015260640161060a565b600061067983610763565b82106106aa5760405163295f44f760e21b81526001600160a01b03841660048201526024810183905260440161060a565b506001600160a01b03919091166000908152600660209081526040808320938352929052205490565b6106df33848484610ac9565b505050565b6106df83838360405180602001604052806000815250610853565b600061070a60085490565b82106107335760405163295f44f760e21b8152600060048201526024810183905260440161060a565b60088281548110610746576107466119ae565b90600052602060002001549050919050565b60006103f48261090f565b60006001600160a01b03821661078f576040516322718ad960e21b81526000600482015260240161060a565b506001600160a01b031660009081526003602052604090205490565b60606001805461040990611953565b6104c0338383610b2d565b600d80546107d290611953565b80601f01602080910402602001604051908101604052809291908181526020018280546107fe90611953565b801561084b5780601f106108205761010080835404028352916020019161084b565b820191906000526020600020905b81548152906001019060200180831161082e57829003601f168201915b505050505081565b61085e8484846105e4565b6105de84848484610bcc565b60606103f482610cee565b6001600160a01b03918216600090815260056020908152604080832093909416825291909152205460ff1690565b6040516bffffffffffffffffffffffff19606084901b1660208201526034810182905260009060540160405160208183030381529060405280519060200120905092915050565b60006001600160e01b03198216632483248360e11b14806103f457506103f482610df7565b6000818152600260205260408120546001600160a01b0316806103f457604051637e27328960e01b81526004810184905260240161060a565b6106df8383836001610e02565b600061096184846108a3565b60405163d10e2e1960e01b815260048101829052909150309063d10e2e1990602401602060405180830381865afa1580156109a0573d6000803e3d6000fd5b505050506040513d601f19601f820116820180604052508101906109c491906119c4565b6109e457604051636bbe423d60e11b81526004810182905260240161060a565b60006109ef60085490565b604080516060810182528481526000858152600a6020908152838220805482850190815260029182015463ffffffff908116868801908152888652600b909452959093209351845591516001840155519101805463ffffffff1916919092161790559050610a5d8382610f08565b5050505050565b6000828152600c60205260409020610a7c8282611a31565b506040518281527ff8e1a15aba9398e019f0b49df1a4fde98ee17ae345cb5f6b5e2c27f5033e8ce79060200160405180910390a15050565b6000610ac1848484610f22565b949350505050565b6000610ad585856108a3565b60408051606081018252958652602080870195865263ffffffff9485168783019081526000938452600a909152912094518555925160018501555090516002909201805463ffffffff19169290911691909117905550565b6001600160a01b038216610b5f57604051630b61174360e31b81526001600160a01b038316600482015260240161060a565b6001600160a01b03838116600081815260056020908152604080832094871680845294825291829020805460ff191686151590811790915591519182527f17307eab39ab6107e8899845ad3d59bd9653f200f220920489ca2b5937696c31910160405180910390a3505050565b6001600160a01b0383163b156105de57604051630a85bd0160e11b81526001600160a01b0384169063150b7a0290610c0e903390889087908790600401611af1565b6020604051808303816000875af1925050508015610c49575060408051601f3d908101601f19168201909252610c4691810190611b2e565b60015b610cb2573d808015610c77576040519150601f19603f3d011682016040523d82523d6000602084013e610c7c565b606091505b508051600003610caa57604051633250574960e11b81526001600160a01b038516600482015260240161060a565b805181602001fd5b6001600160e01b03198116630a85bd0160e11b14610a5d57604051633250574960e11b81526001600160a01b038516600482015260240161060a565b6060610cf98261090f565b506000828152600c602052604081208054610d1390611953565b80601f0160208091040260200160405190810160405280929190818152602001828054610d3f90611953565b8015610d8c5780601f10610d6157610100808354040283529160200191610d8c565b820191906000526020600020905b815481529060010190602001808311610d6f57829003601f168201915b505050505090506000610daa60408051602081019091526000815290565b90508051600003610dbc575092915050565b815115610dee578082604051602001610dd6929190611b4b565b60405160208183030381529060405292505050919050565b610ac184610f2f565b60006103f482610fa3565b8080610e1657506001600160a01b03821615155b15610ed8576000610e268461090f565b90506001600160a01b03831615801590610e525750826001600160a01b0316816001600160a01b031614155b8015610e655750610e638184610875565b155b15610e8e5760405163a9fbf51f60e01b81526001600160a01b038416600482015260240161060a565b8115610ed65783856001600160a01b0316826001600160a01b03167f8c5be1e5ebec7d5bd14f71427d1e84f3dd0314c0f7b2291e5b200ac8c7c3b92560405160405180910390a45b505b5050600090815260046020526040902080546001600160a01b0319166001600160a01b0392909216919091179055565b6104c0828260405180602001604052806000815250610fc8565b6000610ac1848484610fdf565b6060610f3a8261090f565b506000610f5260408051602081019091526000815290565b90506000815111610f72576040518060200160405280600081525061051f565b80610f7c846110ac565b604051602001610f8d929190611b4b565b6040516020818303038152906040529392505050565b60006001600160e01b0319821663780e9d6360e01b14806103f457506103f48261113f565b610fd2838361118f565b6106df6000848484610bcc565b600080610fed8585856111f4565b90506001600160a01b03811661104a5761104584600880546000838152600960205260408120829055600182018355919091527ff3f7a9fe364faab93b216da50a3214154f22a0a2b415b23a84c8169e8b636ee30155565b61106d565b846001600160a01b0316816001600160a01b03161461106d5761106d81856112ed565b6001600160a01b038516611089576110848461137e565b610ac1565b846001600160a01b0316816001600160a01b031614610ac157610ac1858561142d565b606060006110b98361147d565b600101905060008167ffffffffffffffff8111156110d9576110d961182e565b6040519080825280601f01601f191660200182016040528015611103576020820181803683370190505b5090508181016020015b600019016f181899199a1a9b1b9c1cb0b131b232b360811b600a86061a8153600a850494508461110d57509392505050565b60006001600160e01b031982166380ac58cd60e01b148061117057506001600160e01b03198216635b5e139f60e01b145b806103f457506301ffc9a760e01b6001600160e01b03198316146103f4565b6001600160a01b0382166111b957604051633250574960e11b81526000600482015260240161060a565b60006111c783836000610ab4565b90506001600160a01b038116156106df576040516339e3563760e11b81526000600482015260240161060a565b6000828152600260205260408120546001600160a01b039081169083161561122157611221818486611555565b6001600160a01b0381161561125f5761123e600085600080610e02565b6001600160a01b038116600090815260036020526040902080546000190190555b6001600160a01b0385161561128e576001600160a01b0385166000908152600360205260409020805460010190555b60008481526002602052604080822080546001600160a01b0319166001600160a01b0389811691821790925591518793918516917fddf252ad1be2c89b69c2b068fc378daa952ba7f163c4a11628f55a4df523b3ef91a4949350505050565b60006112f883610763565b60008381526007602052604090205490915080821461134b576001600160a01b03841660009081526006602090815260408083208584528252808320548484528184208190558352600790915290208190555b5060009182526007602090815260408084208490556001600160a01b039094168352600681528383209183525290812055565b6008546000906113909060019061198d565b600083815260096020526040812054600880549394509092849081106113b8576113b86119ae565b9060005260206000200154905080600883815481106113d9576113d96119ae565b600091825260208083209091019290925582815260099091526040808220849055858252812055600880548061141157611411611b7a565b6001900381819060005260206000200160009055905550505050565b6000600161143a84610763565b611444919061198d565b6001600160a01b039093166000908152600660209081526040808320868452825280832085905593825260079052919091209190915550565b60008072184f03e93ff9f4daa797ed6e38ed64bf6a1f0160401b83106114bc5772184f03e93ff9f4daa797ed6e38ed64bf6a1f0160401b830492506040015b6d04ee2d6d415b85acef810000000083106114e8576d04ee2d6d415b85acef8100000000830492506020015b662386f26fc10000831061150657662386f26fc10000830492506010015b6305f5e100831061151e576305f5e100830492506008015b612710831061153257612710830492506004015b60648310611544576064830492506002015b600a83106103f45760010192915050565b6115608383836115b9565b6106df576001600160a01b03831661158e57604051637e27328960e01b81526004810182905260240161060a565b60405163177e802f60e01b81526001600160a01b03831660048201526024810182905260440161060a565b60006001600160a01b03831615801590610ac15750826001600160a01b0316846001600160a01b031614806115f357506115f38484610875565b80610ac15750506000908152600460205260409020546001600160a01b03908116911614919050565b60006020828403121561162e57600080fd5b5035919050565b6001600160e01b03198116811461164b57600080fd5b50565b60006020828403121561166057600080fd5b813561051f81611635565b60005b8381101561168657818101518382015260200161166e565b50506000910152565b600081518084526116a781602086016020860161166b565b601f01601f19169290920160200192915050565b60208152600061051f602083018461168f565b80356001600160a01b03811681146116e557600080fd5b919050565b600080604083850312156116fd57600080fd5b611706836116ce565b946020939093013593505050565b60008060006060848603121561172957600080fd5b611732846116ce565b925060208401359150611747604085016116ce565b90509250925092565b60008060006060848603121561176557600080fd5b61176e846116ce565b925061177c602085016116ce565b9150604084013590509250925092565b6000806000606084860312156117a157600080fd5b8335925060208401359150604084013563ffffffff811681146117c357600080fd5b809150509250925092565b6000602082840312156117e057600080fd5b61051f826116ce565b801515811461164b57600080fd5b6000806040838503121561180a57600080fd5b611813836116ce565b91506020830135611823816117e9565b809150509250929050565b634e487b7160e01b600052604160045260246000fd5b6000806000806080858703121561185a57600080fd5b611863856116ce565b9350611871602086016116ce565b925060408501359150606085013567ffffffffffffffff8082111561189557600080fd5b818701915087601f8301126118a957600080fd5b8135818111156118bb576118bb61182e565b604051601f8201601f19908116603f011681019083821181831017156118e3576118e361182e565b816040528281528a60208487010111156118fc57600080fd5b82602086016020830137600060208483010152809550505050505092959194509250565b6000806040838503121561193357600080fd5b61193c836116ce565b915061194a602084016116ce565b90509250929050565b600181811c9082168061196757607f821691505b60208210810361198757634e487b7160e01b600052602260045260246000fd5b50919050565b818103818111156103f457634e487b7160e01b600052601160045260246000fd5b634e487b7160e01b600052603260045260246000fd5b6000602082840312156119d657600080fd5b815161051f816117e9565b601f8211156106df576000816000526020600020601f850160051c81016020861015611a0a5750805b601f850160051c820191505b81811015611a2957828155600101611a16565b505050505050565b815167ffffffffffffffff811115611a4b57611a4b61182e565b611a5f81611a598454611953565b846119e1565b602080601f831160018114611a945760008415611a7c5750858301515b600019600386901b1c1916600185901b178555611a29565b600085815260208120601f198616915b82811015611ac357888601518255948401946001909101908401611aa4565b5085821015611ae15787850151600019600388901b60f8161c191681555b5050505050600190811b01905550565b6001600160a01b0385811682528416602082015260408101839052608060608201819052600090611b249083018461168f565b9695505050505050565b600060208284031215611b4057600080fd5b815161051f81611635565b60008351611b5d81846020880161166b565b835190830190611b7181836020880161166b565b01949350505050565b634e487b7160e01b600052603160045260246000fdfea264697066735822122047ac9896c336eb4553433bc600914beb7ff90e9e442aa90553d670f83a3c1ba864736f6c63430008180033",
  "linkReferences": {},
  "deployedLinkReferences": {}
}