{
  "_format": "hh-sol-artifact-1",
  "contractName": "GatedKnowledgeManager",
  "sourceName": "contracts/GatedKnowledgeManager.sol",
  "abi": [
    {
      "inputs": [
        {
          "internalType": "string",
          "name": "uri",
          "type": "string"
        }
      ],
      "stateMutability": "nonpayable",
      "type": "constructor"
    },
    {
      "inputs": [],
      "name": "ERC721EnumerableForbiddenBatchMint",
      "type": "error"
    },
    {
      "inputs": [
        {
          "internalType": "address",
          "name": "sender",
          "type": "address"
        },
        {
          "internalType": "uint256",
          "name": "tokenId",
          "type": "uint256"
        },
        {
          "internalType": "address",
          "name": "owner",
          "type": "address"
        }
      ],
      "name": "ERC721IncorrectOwner",
      "type": "error"
    },
    {
      "inputs": [
        {
          "internalType": "address",
          "name": "operator",
          "type": "address"
        },
        {
          "internalType": "uint256",
          "name": "tokenId",
          "type": "uint256"
        }
      ],
      "name": "ERC721InsufficientApproval",
      "type": "error"
    },
    {
      "inputs": [
        {
          "internalType": "address",
          "name": "approver",
          "type": "address"
        }
      ],
      "name": "ERC721InvalidApprover",
      "type": "error"
    },
    {
      "inputs": [
        {
          "internalType": "address",
          "name": "operator",
          "type": "address"
        }
      ],
      "name": "ERC721InvalidOperator",
      "type": "error"
    },
    {
      "inputs": [
        {
          "internalType": "address",
          "name": "owner",
          "type": "address"
        }
      ],
      "name": "ERC721InvalidOwner",
      "type": "error"
    },
    {
      "inputs": [
        {
          "internalType": "address",
          "name": "receiver",
          "type": "address"
        }
      ],
      "name": "ERC721InvalidReceiver",
      "type": "error"
    },
    {
      "inputs": [
        {
          "internalType": "address",
          "name": "sender",
          "type": "address"
        }
      ],
      "name": "ERC721InvalidSender",
      "type": "error"
    },
    {
      "inputs": [
        {
          "internalType": "uint256",
          "name": "tokenId",
          "type": "uint256"
        }
      ],
      "name": "ERC721NonexistentToken",
      "type": "error"
    },
    {
      "inputs": [
        {
          "internalType": "address",
          "name": "owner",
          "type": "address"
        },
        {
          "internalType": "uint256",
          "name": "index",
          "type": "uint256"
        }
      ],
      "name": "ERC721OutOfBoundsIndex",
      "type": "error"
    },
    {
      "inputs": [
        {
          "internalType": "uint256",
          "name": "expectedPrice",
          "type": "uint256"
        }
      ],
      "name": "InsufficientFunds",
      "type": "error"
    },
    {
      "inputs": [
        {
          "internalType": "bytes32",
          "name": "accessHash",
          "type": "bytes32"
        }
      ],
      "name": "MintUnavailable",
      "type": "error"
    },
    {
      "anonymous": false,
      "inputs": [
        {
          "indexed": true,
          "internalType": "address",
          "name": "owner",
          "type": "address"
        },
        {
          "indexed": true,
          "internalType": "address",
          "name": "approved",
          "type": "address"
        },
        {
          "indexed": true,
          "internalType": "uint256",
          "name": "tokenId",
          "type": "uint256"
        }
      ],
      "name": "Approval",
      "type": "event"
    },
    {
      "anonymous": false,
      "inputs": [
        {
          "indexed": true,
          "internalType": "address",
          "name": "owner",
          "type": "address"
        },
        {
          "indexed": true,
          "internalType": "address",
          "name": "operator",
          "type": "address"
        },
        {
          "indexed": false,
          "internalType": "bool",
          "name": "approved",
          "type": "bool"
        }
      ],
      "name": "ApprovalForAll",
      "type": "event"
    },
    {
      "anonymous": false,
      "inputs": [
        {
          "indexed": false,
          "internalType": "uint256",
          "name": "_fromTokenId",
          "type": "uint256"
        },
        {
          "indexed": false,
          "internalType": "uint256",
          "name": "_toTokenId",
          "type": "uint256"
        }
      ],
      "name": "BatchMetadataUpdate",
      "type": "event"
    },
    {
      "anonymous": false,
      "inputs": [
        {
          "indexed": false,
          "internalType": "uint256",
          "name": "_tokenId",
          "type": "uint256"
        }
      ],
      "name": "MetadataUpdate",
      "type": "event"
    },
    {
      "anonymous": false,
      "inputs": [
        {
          "indexed": true,
          "internalType": "address",
          "name": "from",
          "type": "address"
        },
        {
          "indexed": true,
          "internalType": "address",
          "name": "to",
          "type": "address"
        },
        {
          "indexed": true,
          "internalType": "uint256",
          "name": "tokenId",
          "type": "uint256"
        }
      ],
      "name": "Transfer",
      "type": "event"
    },
    {
      "inputs": [],
      "name": "_tokenURI",
      "outputs": [
        {
          "internalType": "string",
          "name": "",
          "type": "string"
        }
      ],
      "stateMutability": "view",
      "type": "function"
    },
    {
      "inputs": [
        {
          "internalType": "bytes32",
          "name": "",
          "type": "bytes32"
        }
      ],
      "name": "accessControl",
      "outputs": [
        {
          "internalType": "string",
          "name": "resourceId",
          "type": "string"
        },
        {
          "internalType": "uint256",
          "name": "price",
          "type": "uint256"
        },
        {
          "internalType": "uint32",
          "name": "expirationTime",
          "type": "uint32"
        }
      ],
      "stateMutability": "view",
      "type": "function"
    },
    {
      "inputs": [
        {
          "internalType": "address",
          "name": "to",
          "type": "address"
        },
        {
          "internalType": "uint256",
          "name": "tokenId",
          "type": "uint256"
        }
      ],
      "name": "approve",
      "outputs": [],
      "stateMutability": "nonpayable",
      "type": "function"
    },
    {
      "inputs": [
        {
          "internalType": "address",
          "name": "owner",
          "type": "address"
        }
      ],
      "name": "balanceOf",
      "outputs": [
        {
          "internalType": "uint256",
          "name": "",
          "type": "uint256"
        }
      ],
      "stateMutability": "view",
      "type": "function"
    },
    {
      "inputs": [
        {
          "internalType": "string",
          "name": "resourceId",
          "type": "string"
        }
      ],
      "name": "delAccess",
      "outputs": [],
      "stateMutability": "nonpayable",
      "type": "function"
    },
    {
      "inputs": [
        {
          "internalType": "bytes32",
          "name": "hash",
          "type": "bytes32"
        }
      ],
      "name": "existAccess",
      "outputs": [
        {
          "internalType": "bool",
          "name": "",
          "type": "bool"
        }
      ],
      "stateMutability": "view",
      "type": "function"
    },
    {
      "inputs": [
        {
          "internalType": "uint256",
          "name": "tokenId",
          "type": "uint256"
        }
      ],
      "name": "getApproved",
      "outputs": [
        {
          "internalType": "address",
          "name": "",
          "type": "address"
        }
      ],
      "stateMutability": "view",
      "type": "function"
    },
    {
      "inputs": [
        {
          "internalType": "address",
          "name": "author",
          "type": "address"
        },
        {
          "internalType": "string",
          "name": "resourceId",
          "type": "string"
        },
        {
          "internalType": "address",
          "name": "consumer",
          "type": "address"
        }
      ],
      "name": "hasAccess",
      "outputs": [
        {
          "internalType": "bool",
          "name": "response",
          "type": "bool"
        },
        {
          "internalType": "string",
          "name": "message",
          "type": "string"
        }
      ],
      "stateMutability": "view",
      "type": "function"
    },
    {
      "inputs": [
        {
          "internalType": "address",
          "name": "owner",
          "type": "address"
        },
        {
          "internalType": "address",
          "name": "operator",
          "type": "address"
        }
      ],
      "name": "isApprovedForAll",
      "outputs": [
        {
          "internalType": "bool",
          "name": "",
          "type": "bool"
        }
      ],
      "stateMutability": "view",
      "type": "function"
    },
    {
      "inputs": [
        {
          "internalType": "address",
          "name": "author",
          "type": "address"
        },
        {
          "internalType": "string",
          "name": "resourceId",
          "type": "string"
        },
        {
          "internalType": "address",
          "name": "to",
          "type": "address"
        }
      ],
      "name": "mint",
      "outputs": [],
      "stateMutability": "payable",
      "type": "function"
    },
    {
      "inputs": [],
      "name": "name",
      "outputs": [
        {
          "internalType": "string",
          "name": "",
          "type": "string"
        }
      ],
      "stateMutability": "view",
      "type": "function"
    },
    {
      "inputs": [
        {
          "internalType": "uint256",
          "name": "",
          "type": "uint256"
        }
      ],
      "name": "nftData",
      "outputs": [
        {
          "internalType": "bytes32",
          "name": "hash",
          "type": "bytes32"
        },
        {
          "internalType": "string",
          "name": "resourceId",
          "type": "string"
        },
        {
          "internalType": "uint32",
          "name": "expirationTime",
          "type": "uint32"
        }
      ],
      "stateMutability": "view",
      "type": "function"
    },
    {
      "inputs": [
        {
          "internalType": "uint256",
          "name": "tokenId",
          "type": "uint256"
        }
      ],
      "name": "ownerOf",
      "outputs": [
        {
          "internalType": "address",
          "name": "",
          "type": "address"
        }
      ],
      "stateMutability": "view",
      "type": "function"
    },
    {
      "inputs": [
        {
          "internalType": "address",
          "name": "from",
          "type": "address"
        },
        {
          "internalType": "address",
          "name": "to",
          "type": "address"
        },
        {
          "internalType": "uint256",
          "name": "tokenId",
          "type": "uint256"
        }
      ],
      "name": "safeTransferFrom",
      "outputs": [],
      "stateMutability": "nonpayable",
      "type": "function"
    },
    {
      "inputs": [
        {
          "internalType": "address",
          "name": "from",
          "type": "address"
        },
        {
          "internalType": "address",
          "name": "to",
          "type": "address"
        },
        {
          "internalType": "uint256",
          "name": "tokenId",
          "type": "uint256"
        },
        {
          "internalType": "bytes",
          "name": "data",
          "type": "bytes"
        }
      ],
      "name": "safeTransferFrom",
      "outputs": [],
      "stateMutability": "nonpayable",
      "type": "function"
    },
    {
      "inputs": [
        {
          "internalType": "string",
          "name": "resourceId",
          "type": "string"
        },
        {
          "internalType": "uint256",
          "name": "price",
          "type": "uint256"
        },
        {
          "internalType": "uint32",
          "name": "expirationTime",
          "type": "uint32"
        }
      ],
      "name": "setAccess",
      "outputs": [],
      "stateMutability": "nonpayable",
      "type": "function"
    },
    {
      "inputs": [
        {
          "internalType": "address",
          "name": "operator",
          "type": "address"
        },
        {
          "internalType": "bool",
          "name": "approved",
          "type": "bool"
        }
      ],
      "name": "setApprovalForAll",
      "outputs": [],
      "stateMutability": "nonpayable",
      "type": "function"
    },
    {
      "inputs": [
        {
          "internalType": "bytes4",
          "name": "interfaceId",
          "type": "bytes4"
        }
      ],
      "name": "supportsInterface",
      "outputs": [
        {
          "internalType": "bool",
          "name": "",
          "type": "bool"
        }
      ],
      "stateMutability": "view",
      "type": "function"
    },
    {
      "inputs": [],
      "name": "symbol",
      "outputs": [
        {
          "internalType": "string",
          "name": "",
          "type": "string"
        }
      ],
      "stateMutability": "view",
      "type": "function"
    },
    {
      "inputs": [
        {
          "internalType": "uint256",
          "name": "index",
          "type": "uint256"
        }
      ],
      "name": "tokenByIndex",
      "outputs": [
        {
          "internalType": "uint256",
          "name": "",
          "type": "uint256"
        }
      ],
      "stateMutability": "view",
      "type": "function"
    },
    {
      "inputs": [
        {
          "internalType": "address",
          "name": "owner",
          "type": "address"
        },
        {
          "internalType": "uint256",
          "name": "index",
          "type": "uint256"
        }
      ],
      "name": "tokenOfOwnerByIndex",
      "outputs": [
        {
          "internalType": "uint256",
          "name": "",
          "type": "uint256"
        }
      ],
      "stateMutability": "view",
      "type": "function"
    },
    {
      "inputs": [
        {
          "internalType": "uint256",
          "name": "tokenId",
          "type": "uint256"
        }
      ],
      "name": "tokenURI",
      "outputs": [
        {
          "internalType": "string",
          "name": "",
          "type": "string"
        }
      ],
      "stateMutability": "view",
      "type": "function"
    },
    {
      "inputs": [],
      "name": "totalSupply",
      "outputs": [
        {
          "internalType": "uint256",
          "name": "",
          "type": "uint256"
        }
      ],
      "stateMutability": "view",
      "type": "function"
    },
    {
      "inputs": [
        {
          "internalType": "address",
          "name": "from",
          "type": "address"
        },
        {
          "internalType": "address",
          "name": "to",
          "type": "address"
        },
        {
          "internalType": "uint256",
          "name": "tokenId",
          "type": "uint256"
        }
      ],
      "name": "transferFrom",
      "outputs": [],
      "stateMutability": "nonpayable",
      "type": "function"
    }
  ],
  "bytecode": "0x60806040523480156200001157600080fd5b506040516200266a3803806200266a8339810160408190526200003491620000dc565b6040518060400160405280601c81526020017f4970616c204761746564204b6e6f776c65646765204d616e61676572000000008152506040518060400160405280600381526020016249474960e81b8152508181816000908162000099919062000242565b506001620000a8828262000242565b505050505080600d9081620000be919062000242565b50506200030e565b634e487b7160e01b600052604160045260246000fd5b60006020808385031215620000f057600080fd5b82516001600160401b03808211156200010857600080fd5b818501915085601f8301126200011d57600080fd5b815181811115620001325762000132620000c6565b604051601f8201601f19908116603f011681019083821181831017156200015d576200015d620000c6565b8160405282815288868487010111156200017657600080fd5b600093505b828410156200019a57848401860151818501870152928501926200017b565b600086848301015280965050505050505092915050565b600181811c90821680620001c657607f821691505b602082108103620001e757634e487b7160e01b600052602260045260246000fd5b50919050565b601f8211156200023d576000816000526020600020601f850160051c81016020861015620002185750805b601f850160051c820191505b81811015620002395782815560010162000224565b5050505b505050565b81516001600160401b038111156200025e576200025e620000c6565b62000276816200026f8454620001b1565b84620001ed565b602080601f831160018114620002ae5760008415620002955750858301515b600019600386901b1c1916600185901b17855562000239565b600085815260208120601f198616915b82811015620002df57888601518255948401946001909101908401620002be565b5085821015620002fe5787850151600019600388901b60f8161c191681555b5050505050600190811b01905550565b61234c806200031e6000396000f3fe60806040526004361061014b5760003560e01c806370a08231116100b6578063b4ce37d21161006f578063b4ce37d2146103e1578063b88d4fde146103f6578063c87b56dd14610416578063d10e2e1914610436578063e985e9c514610456578063fa8509c81461047657600080fd5b806370a082311461030e5780638b6df91a1461032e5780638c2109751461035d57806395d89b411461038c578063a22cb465146103a1578063a97ae223146103c157600080fd5b806323b872dd1161010857806323b872dd146102405780632c94436f146102605780632f745c591461028e57806342842e0e146102ae5780634f6ccce7146102ce5780636352211e146102ee57600080fd5b806301ffc9a71461015057806306fdde0314610185578063081812fc146101a7578063095ea7b3146101df5780630aa568111461020157806318160ddd14610221575b600080fd5b34801561015c57600080fd5b5061017061016b366004611c3c565b610489565b60405190151581526020015b60405180910390f35b34801561019157600080fd5b5061019a61049a565b60405161017c9190611ca9565b3480156101b357600080fd5b506101c76101c2366004611cbc565b61052c565b6040516001600160a01b03909116815260200161017c565b3480156101eb57600080fd5b506101ff6101fa366004611cf1565b610555565b005b34801561020d57600080fd5b506101ff61021c366004611d64565b610564565b34801561022d57600080fd5b506008545b60405190815260200161017c565b34801561024c57600080fd5b506101ff61025b366004611dcc565b610577565b34801561026c57600080fd5b5061028061027b366004611e08565b610601565b60405161017c929190611e6d565b34801561029a57600080fd5b506102326102a9366004611cf1565b61087d565b3480156102ba57600080fd5b506101ff6102c9366004611dcc565b6108e2565b3480156102da57600080fd5b506102326102e9366004611cbc565b610902565b3480156102fa57600080fd5b506101c7610309366004611cbc565b61095b565b34801561031a57600080fd5b50610232610329366004611e88565b610966565b34801561033a57600080fd5b5061034e610349366004611cbc565b6109ae565b60405161017c93929190611ea3565b34801561036957600080fd5b5061037d610378366004611cbc565b610a5f565b60405161017c93929190611ed2565b34801561039857600080fd5b5061019a610b10565b3480156103ad57600080fd5b506101ff6103bc366004611f0f565b610b1f565b3480156103cd57600080fd5b506101ff6103dc366004611f46565b610b2a565b3480156103ed57600080fd5b5061019a610b6d565b34801561040257600080fd5b506101ff610411366004611f9e565b610bfb565b34801561042257600080fd5b5061019a610431366004611cbc565b610c12565b34801561044257600080fd5b50610170610451366004611cbc565b610c1d565b34801561046257600080fd5b5061017061047136600461207a565b610c3f565b6101ff610484366004611e08565b610c6d565b600061049482610d2d565b92915050565b6060600080546104a9906120ad565b80601f01602080910402602001604051908101604052809291908181526020018280546104d5906120ad565b80156105225780601f106104f757610100808354040283529160200191610522565b820191906000526020600020905b81548152906001019060200180831161050557829003601f168201915b5050505050905090565b600061053782610d52565b506000828152600460205260409020546001600160a01b0316610494565b610560828233610d8b565b5050565b6105713385858585610d98565b50505050565b6001600160a01b0382166105a657604051633250574960e11b8152600060048201526024015b60405180910390fd5b60006105b3838333610e45565b9050836001600160a01b0316816001600160a01b031614610571576040516364283d7b60e01b81526001600160a01b038086166004830152602482018490528216604482015260640161059d565b600060606000610612878787610e5a565b60405163d10e2e1960e01b815260048101829052909150309063d10e2e1990602401602060405180830381865afa158015610651573d6000803e3d6000fd5b505050506040513d601f19601f8201168201806040525081019061067591906120e7565b6106af5750506040805180820190915260148152731858d8d95cdcc8191bd95cdb89dd08195e1a5cdd60621b602082015260009150610874565b60005b6106bb85610966565b8110156108355760006106ce868361087d565b90506000600b60008381526020019081526020016000206040518060600160405290816000820154815260200160018201805461070a906120ad565b80601f0160208091040260200160405190810160405280929190818152602001828054610736906120ad565b80156107835780601f1061075857610100808354040283529160200191610783565b820191906000526020600020905b81548152906001019060200180831161076657829003601f168201915b50505091835250506002919091015463ffffffff16602090910152805190915084900361082b57806040015163ffffffff164211156107f5576000604051806040016040528060118152602001701858d8d95cdcc81a5cc8195e1c1a5c9959607a1b8152509550955050505050610874565b60016040518060400160405280600e81526020016d1858d8d95cdcc819dc985b9d195960921b8152509550955050505050610874565b50506001016106b2565b5060006040518060400160405280601881526020017f7573657220646f65736e2774206f776e20746865204e4654000000000000000081525092509250505b94509492505050565b600061088883610966565b82106108b95760405163295f44f760e21b81526001600160a01b03841660048201526024810183905260440161059d565b506001600160a01b03919091166000908152600660209081526040808320938352929052205490565b6108fd83838360405180602001604052806000815250610bfb565b505050565b600061090d60085490565b82106109365760405163295f44f760e21b8152600060048201526024810183905260440161059d565b6008828154811061094957610949612104565b90600052602060002001549050919050565b600061049482610d52565b60006001600160a01b038216610992576040516322718ad960e21b81526000600482015260240161059d565b506001600160a01b031660009081526003602052604090205490565b600a602052600090815260409020805481906109c9906120ad565b80601f01602080910402602001604051908101604052809291908181526020018280546109f5906120ad565b8015610a425780601f10610a1757610100808354040283529160200191610a42565b820191906000526020600020905b815481529060010190602001808311610a2557829003601f168201915b50505050600183015460029093015491929163ffffffff16905083565b600b6020526000908152604090208054600182018054919291610a81906120ad565b80601f0160208091040260200160405190810160405280929190818152602001828054610aad906120ad565b8015610afa5780601f10610acf57610100808354040283529160200191610afa565b820191906000526020600020905b815481529060010190602001808311610add57829003601f168201915b5050506002909301549192505063ffffffff1683565b6060600180546104a9906120ad565b610560338383610e90565b6000610b37338484610e5a565b6000818152600a60205260408120919250610b528282611bd0565b5060006001820155600201805463ffffffff19169055505050565b600d8054610b7a906120ad565b80601f0160208091040260200160405190810160405280929190818152602001828054610ba6906120ad565b8015610bf35780601f10610bc857610100808354040283529160200191610bf3565b820191906000526020600020905b815481529060010190602001808311610bd657829003601f168201915b505050505081565b610c06848484610577565b61057184848484610f2f565b606061049482611051565b6000818152600a602052604081208054610c36906120ad565b15159392505050565b6001600160a01b03918216600090815260056020908152604080832093909416825291909152205460ff1690565b610c798484848461115a565b60006001610c8660085490565b610c90919061211a565b9050610d2681600d8054610ca3906120ad565b80601f0160208091040260200160405190810160405280929190818152602001828054610ccf906120ad565b8015610d1c5780601f10610cf157610100808354040283529160200191610d1c565b820191906000526020600020905b815481529060010190602001808311610cff57829003601f168201915b505050505061135a565b5050505050565b60006001600160e01b03198216632483248360e11b14806104945750610494826113aa565b6000818152600260205260408120546001600160a01b03168061049457604051637e27328960e01b81526004810184905260240161059d565b6108fd83838360016113b5565b6000610da5868686610e5a565b6040805160806020601f890181900402820181019092526060810187815292935091829188908890819085018382808284376000920182905250938552505050602080830187905263ffffffff8616604093840152848252600a90522081518190610e10908261218b565b50602082015160018201556040909101516002909101805463ffffffff191663ffffffff909216919091179055505050505050565b6000610e528484846114bb565b949350505050565b6000838383604051602001610e719392919061224b565b6040516020818303038152906040528051906020012090509392505050565b6001600160a01b038216610ec257604051630b61174360e31b81526001600160a01b038316600482015260240161059d565b6001600160a01b03838116600081815260056020908152604080832094871680845294825291829020805460ff191686151590811790915591519182527f17307eab39ab6107e8899845ad3d59bd9653f200f220920489ca2b5937696c31910160405180910390a3505050565b6001600160a01b0383163b1561057157604051630a85bd0160e11b81526001600160a01b0384169063150b7a0290610f71903390889087908790600401612277565b6020604051808303816000875af1925050508015610fac575060408051601f3d908101601f19168201909252610fa9918101906122b4565b60015b611015573d808015610fda576040519150601f19603f3d011682016040523d82523d6000602084013e610fdf565b606091505b50805160000361100d57604051633250574960e11b81526001600160a01b038516600482015260240161059d565b805181602001fd5b6001600160e01b03198116630a85bd0160e11b14610d2657604051633250574960e11b81526001600160a01b038516600482015260240161059d565b606061105c82610d52565b506000828152600c602052604081208054611076906120ad565b80601f01602080910402602001604051908101604052809291908181526020018280546110a2906120ad565b80156110ef5780601f106110c4576101008083540402835291602001916110ef565b820191906000526020600020905b8154815290600101906020018083116110d257829003601f168201915b50505050509050600061110d60408051602081019091526000815290565b9050805160000361111f575092915050565b8151156111515780826040516020016111399291906122d1565b60405160208183030381529060405292505050919050565b610e52846114c8565b6000611167858585610e5a565b60405163d10e2e1960e01b815260048101829052909150309063d10e2e1990602401602060405180830381865afa1580156111a6573d6000803e3d6000fd5b505050506040513d601f19601f820116820180604052508101906111ca91906120e7565b6111ea57604051636bbe423d60e11b81526004810182905260240161059d565b6000818152600a602052604090206001015434811115611220576040516365bc667160e11b81526004810182905260240161059d565b600061122b60085490565b90506040518060600160405280848152602001600a6000868152602001908152602001600020600001805461125f906120ad565b80601f016020809104026020016040519081016040528092919081815260200182805461128b906120ad565b80156112d85780601f106112ad576101008083540402835291602001916112d8565b820191906000526020600020905b8154815290600101906020018083116112bb57829003601f168201915b50505091835250506000858152600a602090815260408083206002015463ffffffff1693820193909352848252600b815291902082518155908201516001820190611323908261218b565b50604091909101516002909101805463ffffffff191663ffffffff909216919091179055611351848261153d565b50505050505050565b6000828152600c60205260409020611372828261218b565b506040518281527ff8e1a15aba9398e019f0b49df1a4fde98ee17ae345cb5f6b5e2c27f5033e8ce79060200160405180910390a15050565b600061049482611557565b80806113c957506001600160a01b03821615155b1561148b5760006113d984610d52565b90506001600160a01b038316158015906114055750826001600160a01b0316816001600160a01b031614155b801561141857506114168184610c3f565b155b156114415760405163a9fbf51f60e01b81526001600160a01b038416600482015260240161059d565b81156114895783856001600160a01b0316826001600160a01b03167f8c5be1e5ebec7d5bd14f71427d1e84f3dd0314c0f7b2291e5b200ac8c7c3b92560405160405180910390a45b505b5050600090815260046020526040902080546001600160a01b0319166001600160a01b0392909216919091179055565b6000610e5284848461157c565b60606114d382610d52565b5060006114eb60408051602081019091526000815290565b9050600081511161150b5760405180602001604052806000815250611536565b8061151584611649565b6040516020016115269291906122d1565b6040516020818303038152906040525b9392505050565b6105608282604051806020016040528060008152506116dc565b60006001600160e01b0319821663780e9d6360e01b14806104945750610494826116f3565b60008061158a858585611743565b90506001600160a01b0381166115e7576115e284600880546000838152600960205260408120829055600182018355919091527ff3f7a9fe364faab93b216da50a3214154f22a0a2b415b23a84c8169e8b636ee30155565b61160a565b846001600160a01b0316816001600160a01b03161461160a5761160a818561183c565b6001600160a01b03851661162657611621846118cd565b610e52565b846001600160a01b0316816001600160a01b031614610e5257610e52858561197c565b60606000611656836119cc565b600101905060008167ffffffffffffffff81111561167657611676611f88565b6040519080825280601f01601f1916602001820160405280156116a0576020820181803683370190505b5090508181016020015b600019016f181899199a1a9b1b9c1cb0b131b232b360811b600a86061a8153600a85049450846116aa57509392505050565b6116e68383611aa4565b6108fd6000848484610f2f565b60006001600160e01b031982166380ac58cd60e01b148061172457506001600160e01b03198216635b5e139f60e01b145b8061049457506301ffc9a760e01b6001600160e01b0319831614610494565b6000828152600260205260408120546001600160a01b039081169083161561177057611770818486611b09565b6001600160a01b038116156117ae5761178d6000856000806113b5565b6001600160a01b038116600090815260036020526040902080546000190190555b6001600160a01b038516156117dd576001600160a01b0385166000908152600360205260409020805460010190555b60008481526002602052604080822080546001600160a01b0319166001600160a01b0389811691821790925591518793918516917fddf252ad1be2c89b69c2b068fc378daa952ba7f163c4a11628f55a4df523b3ef91a4949350505050565b600061184783610966565b60008381526007602052604090205490915080821461189a576001600160a01b03841660009081526006602090815260408083208584528252808320548484528184208190558352600790915290208190555b5060009182526007602090815260408084208490556001600160a01b039094168352600681528383209183525290812055565b6008546000906118df9060019061211a565b6000838152600960205260408120546008805493945090928490811061190757611907612104565b90600052602060002001549050806008838154811061192857611928612104565b600091825260208083209091019290925582815260099091526040808220849055858252812055600880548061196057611960612300565b6001900381819060005260206000200160009055905550505050565b6000600161198984610966565b611993919061211a565b6001600160a01b039093166000908152600660209081526040808320868452825280832085905593825260079052919091209190915550565b60008072184f03e93ff9f4daa797ed6e38ed64bf6a1f0160401b8310611a0b5772184f03e93ff9f4daa797ed6e38ed64bf6a1f0160401b830492506040015b6d04ee2d6d415b85acef81000000008310611a37576d04ee2d6d415b85acef8100000000830492506020015b662386f26fc100008310611a5557662386f26fc10000830492506010015b6305f5e1008310611a6d576305f5e100830492506008015b6127108310611a8157612710830492506004015b60648310611a93576064830492506002015b600a83106104945760010192915050565b6001600160a01b038216611ace57604051633250574960e11b81526000600482015260240161059d565b6000611adc83836000610e45565b90506001600160a01b038116156108fd576040516339e3563760e11b81526000600482015260240161059d565b611b14838383611b6d565b6108fd576001600160a01b038316611b4257604051637e27328960e01b81526004810182905260240161059d565b60405163177e802f60e01b81526001600160a01b03831660048201526024810182905260440161059d565b60006001600160a01b03831615801590610e525750826001600160a01b0316846001600160a01b03161480611ba75750611ba78484610c3f565b80610e525750506000908152600460205260409020546001600160a01b03908116911614919050565b508054611bdc906120ad565b6000825580601f10611bec575050565b601f016020900490600052602060002090810190611c0a9190611c0d565b50565b5b80821115611c225760008155600101611c0e565b5090565b6001600160e01b031981168114611c0a57600080fd5b600060208284031215611c4e57600080fd5b813561153681611c26565b60005b83811015611c74578181015183820152602001611c5c565b50506000910152565b60008151808452611c95816020860160208601611c59565b601f01601f19169290920160200192915050565b6020815260006115366020830184611c7d565b600060208284031215611cce57600080fd5b5035919050565b80356001600160a01b0381168114611cec57600080fd5b919050565b60008060408385031215611d0457600080fd5b611d0d83611cd5565b946020939093013593505050565b60008083601f840112611d2d57600080fd5b50813567ffffffffffffffff811115611d4557600080fd5b602083019150836020828501011115611d5d57600080fd5b9250929050565b60008060008060608587031215611d7a57600080fd5b843567ffffffffffffffff811115611d9157600080fd5b611d9d87828801611d1b565b90955093505060208501359150604085013563ffffffff81168114611dc157600080fd5b939692955090935050565b600080600060608486031215611de157600080fd5b611dea84611cd5565b9250611df860208501611cd5565b9150604084013590509250925092565b60008060008060608587031215611e1e57600080fd5b611e2785611cd5565b9350602085013567ffffffffffffffff811115611e4357600080fd5b611e4f87828801611d1b565b9094509250611e62905060408601611cd5565b905092959194509250565b8215158152604060208201526000610e526040830184611c7d565b600060208284031215611e9a57600080fd5b61153682611cd5565b606081526000611eb66060830186611c7d565b905083602083015263ffffffff83166040830152949350505050565b838152606060208201526000611eeb6060830185611c7d565b905063ffffffff83166040830152949350505050565b8015158114611c0a57600080fd5b60008060408385031215611f2257600080fd5b611f2b83611cd5565b91506020830135611f3b81611f01565b809150509250929050565b60008060208385031215611f5957600080fd5b823567ffffffffffffffff811115611f7057600080fd5b611f7c85828601611d1b565b90969095509350505050565b634e487b7160e01b600052604160045260246000fd5b60008060008060808587031215611fb457600080fd5b611fbd85611cd5565b9350611fcb60208601611cd5565b925060408501359150606085013567ffffffffffffffff80821115611fef57600080fd5b818701915087601f83011261200357600080fd5b81358181111561201557612015611f88565b604051601f8201601f19908116603f0116810190838211818310171561203d5761203d611f88565b816040528281528a602084870101111561205657600080fd5b82602086016020830137600060208483010152809550505050505092959194509250565b6000806040838503121561208d57600080fd5b61209683611cd5565b91506120a460208401611cd5565b90509250929050565b600181811c908216806120c157607f821691505b6020821081036120e157634e487b7160e01b600052602260045260246000fd5b50919050565b6000602082840312156120f957600080fd5b815161153681611f01565b634e487b7160e01b600052603260045260246000fd5b8181038181111561049457634e487b7160e01b600052601160045260246000fd5b601f8211156108fd576000816000526020600020601f850160051c810160208610156121645750805b601f850160051c820191505b8181101561218357828155600101612170565b505050505050565b815167ffffffffffffffff8111156121a5576121a5611f88565b6121b9816121b384546120ad565b8461213b565b602080601f8311600181146121ee57600084156121d65750858301515b600019600386901b1c1916600185901b178555612183565b600085815260208120601f198616915b8281101561221d578886015182559484019460019091019084016121fe565b508582101561223b5787850151600019600388901b60f8161c191681555b5050505050600190811b01905550565b6bffffffffffffffffffffffff198460601b168152818360148301376000910160140190815292915050565b6001600160a01b03858116825284166020820152604081018390526080606082018190526000906122aa90830184611c7d565b9695505050505050565b6000602082840312156122c657600080fd5b815161153681611c26565b600083516122e3818460208801611c59565b8351908301906122f7818360208801611c59565b01949350505050565b634e487b7160e01b600052603160045260246000fdfea2646970667358221220795dc06259195d70ad841496b815a097c3707b93899f264bfea464862293ccb664736f6c63430008180033",
  "linkReferences": {},
  "deployedLinkReferences": {}
}