{
  "_format": "hh-sol-artifact-1",
  "contractName": "GatedKnowledgeManager",
  "sourceName": "contracts/GatedKnowledgeManager.sol",
  "abi": [
    {
      "inputs": [
        {
          "internalType": "string",
          "name": "uri",
          "type": "string"
        }
      ],
      "stateMutability": "nonpayable",
      "type": "constructor"
    },
    {
      "inputs": [],
      "name": "ERC721EnumerableForbiddenBatchMint",
      "type": "error"
    },
    {
      "inputs": [
        {
          "internalType": "address",
          "name": "sender",
          "type": "address"
        },
        {
          "internalType": "uint256",
          "name": "tokenId",
          "type": "uint256"
        },
        {
          "internalType": "address",
          "name": "owner",
          "type": "address"
        }
      ],
      "name": "ERC721IncorrectOwner",
      "type": "error"
    },
    {
      "inputs": [
        {
          "internalType": "address",
          "name": "operator",
          "type": "address"
        },
        {
          "internalType": "uint256",
          "name": "tokenId",
          "type": "uint256"
        }
      ],
      "name": "ERC721InsufficientApproval",
      "type": "error"
    },
    {
      "inputs": [
        {
          "internalType": "address",
          "name": "approver",
          "type": "address"
        }
      ],
      "name": "ERC721InvalidApprover",
      "type": "error"
    },
    {
      "inputs": [
        {
          "internalType": "address",
          "name": "operator",
          "type": "address"
        }
      ],
      "name": "ERC721InvalidOperator",
      "type": "error"
    },
    {
      "inputs": [
        {
          "internalType": "address",
          "name": "owner",
          "type": "address"
        }
      ],
      "name": "ERC721InvalidOwner",
      "type": "error"
    },
    {
      "inputs": [
        {
          "internalType": "address",
          "name": "receiver",
          "type": "address"
        }
      ],
      "name": "ERC721InvalidReceiver",
      "type": "error"
    },
    {
      "inputs": [
        {
          "internalType": "address",
          "name": "sender",
          "type": "address"
        }
      ],
      "name": "ERC721InvalidSender",
      "type": "error"
    },
    {
      "inputs": [
        {
          "internalType": "uint256",
          "name": "tokenId",
          "type": "uint256"
        }
      ],
      "name": "ERC721NonexistentToken",
      "type": "error"
    },
    {
      "inputs": [
        {
          "internalType": "address",
          "name": "owner",
          "type": "address"
        },
        {
          "internalType": "uint256",
          "name": "index",
          "type": "uint256"
        }
      ],
      "name": "ERC721OutOfBoundsIndex",
      "type": "error"
    },
    {
      "inputs": [
        {
          "internalType": "bytes32",
          "name": "accessHash",
          "type": "bytes32"
        }
      ],
      "name": "MintUnavailable",
      "type": "error"
    },
    {
      "anonymous": false,
      "inputs": [
        {
          "indexed": true,
          "internalType": "address",
          "name": "owner",
          "type": "address"
        },
        {
          "indexed": true,
          "internalType": "address",
          "name": "approved",
          "type": "address"
        },
        {
          "indexed": true,
          "internalType": "uint256",
          "name": "tokenId",
          "type": "uint256"
        }
      ],
      "name": "Approval",
      "type": "event"
    },
    {
      "anonymous": false,
      "inputs": [
        {
          "indexed": true,
          "internalType": "address",
          "name": "owner",
          "type": "address"
        },
        {
          "indexed": true,
          "internalType": "address",
          "name": "operator",
          "type": "address"
        },
        {
          "indexed": false,
          "internalType": "bool",
          "name": "approved",
          "type": "bool"
        }
      ],
      "name": "ApprovalForAll",
      "type": "event"
    },
    {
      "anonymous": false,
      "inputs": [
        {
          "indexed": false,
          "internalType": "uint256",
          "name": "_fromTokenId",
          "type": "uint256"
        },
        {
          "indexed": false,
          "internalType": "uint256",
          "name": "_toTokenId",
          "type": "uint256"
        }
      ],
      "name": "BatchMetadataUpdate",
      "type": "event"
    },
    {
      "anonymous": false,
      "inputs": [
        {
          "indexed": false,
          "internalType": "uint256",
          "name": "_tokenId",
          "type": "uint256"
        }
      ],
      "name": "MetadataUpdate",
      "type": "event"
    },
    {
      "anonymous": false,
      "inputs": [
        {
          "indexed": true,
          "internalType": "address",
          "name": "from",
          "type": "address"
        },
        {
          "indexed": true,
          "internalType": "address",
          "name": "to",
          "type": "address"
        },
        {
          "indexed": true,
          "internalType": "uint256",
          "name": "tokenId",
          "type": "uint256"
        }
      ],
      "name": "Transfer",
      "type": "event"
    },
    {
      "inputs": [],
      "name": "_tokenURI",
      "outputs": [
        {
          "internalType": "string",
          "name": "",
          "type": "string"
        }
      ],
      "stateMutability": "view",
      "type": "function"
    },
    {
      "inputs": [
        {
          "internalType": "bytes32",
          "name": "hash",
          "type": "bytes32"
        }
      ],
      "name": "accessControl",
      "outputs": [
        {
          "internalType": "uint256",
          "name": "contentId",
          "type": "uint256"
        },
        {
          "internalType": "uint256",
          "name": "price",
          "type": "uint256"
        },
        {
          "internalType": "uint32",
          "name": "expirationTime",
          "type": "uint32"
        }
      ],
      "stateMutability": "view",
      "type": "function"
    },
    {
      "inputs": [
        {
          "internalType": "address",
          "name": "to",
          "type": "address"
        },
        {
          "internalType": "uint256",
          "name": "tokenId",
          "type": "uint256"
        }
      ],
      "name": "approve",
      "outputs": [],
      "stateMutability": "nonpayable",
      "type": "function"
    },
    {
      "inputs": [
        {
          "internalType": "address",
          "name": "owner",
          "type": "address"
        }
      ],
      "name": "balanceOf",
      "outputs": [
        {
          "internalType": "uint256",
          "name": "",
          "type": "uint256"
        }
      ],
      "stateMutability": "view",
      "type": "function"
    },
    {
      "inputs": [
        {
          "internalType": "uint256",
          "name": "contentId",
          "type": "uint256"
        }
      ],
      "name": "delAccess",
      "outputs": [],
      "stateMutability": "nonpayable",
      "type": "function"
    },
    {
      "inputs": [
        {
          "internalType": "bytes32",
          "name": "hash",
          "type": "bytes32"
        }
      ],
      "name": "existAccess",
      "outputs": [
        {
          "internalType": "bool",
          "name": "",
          "type": "bool"
        }
      ],
      "stateMutability": "view",
      "type": "function"
    },
    {
      "inputs": [
        {
          "internalType": "uint256",
          "name": "tokenId",
          "type": "uint256"
        }
      ],
      "name": "getApproved",
      "outputs": [
        {
          "internalType": "address",
          "name": "",
          "type": "address"
        }
      ],
      "stateMutability": "view",
      "type": "function"
    },
    {
      "inputs": [
        {
          "internalType": "address",
          "name": "author",
          "type": "address"
        },
        {
          "internalType": "uint256",
          "name": "contentId",
          "type": "uint256"
        },
        {
          "internalType": "address",
          "name": "consumer",
          "type": "address"
        }
      ],
      "name": "hasAccess",
      "outputs": [
        {
          "internalType": "bool",
          "name": "",
          "type": "bool"
        }
      ],
      "stateMutability": "view",
      "type": "function"
    },
    {
      "inputs": [
        {
          "internalType": "address",
          "name": "owner",
          "type": "address"
        },
        {
          "internalType": "address",
          "name": "operator",
          "type": "address"
        }
      ],
      "name": "isApprovedForAll",
      "outputs": [
        {
          "internalType": "bool",
          "name": "",
          "type": "bool"
        }
      ],
      "stateMutability": "view",
      "type": "function"
    },
    {
      "inputs": [
        {
          "internalType": "address",
          "name": "author",
          "type": "address"
        },
        {
          "internalType": "uint256",
          "name": "contentId",
          "type": "uint256"
        },
        {
          "internalType": "address",
          "name": "to",
          "type": "address"
        }
      ],
      "name": "mint",
      "outputs": [],
      "stateMutability": "nonpayable",
      "type": "function"
    },
    {
      "inputs": [],
      "name": "name",
      "outputs": [
        {
          "internalType": "string",
          "name": "",
          "type": "string"
        }
      ],
      "stateMutability": "view",
      "type": "function"
    },
    {
      "inputs": [
        {
          "internalType": "uint256",
          "name": "",
          "type": "uint256"
        }
      ],
      "name": "nftData",
      "outputs": [
        {
          "internalType": "bytes32",
          "name": "hash",
          "type": "bytes32"
        },
        {
          "internalType": "uint256",
          "name": "contentId",
          "type": "uint256"
        },
        {
          "internalType": "uint32",
          "name": "expirationTime",
          "type": "uint32"
        }
      ],
      "stateMutability": "view",
      "type": "function"
    },
    {
      "inputs": [
        {
          "internalType": "uint256",
          "name": "tokenId",
          "type": "uint256"
        }
      ],
      "name": "ownerOf",
      "outputs": [
        {
          "internalType": "address",
          "name": "",
          "type": "address"
        }
      ],
      "stateMutability": "view",
      "type": "function"
    },
    {
      "inputs": [
        {
          "internalType": "address",
          "name": "from",
          "type": "address"
        },
        {
          "internalType": "address",
          "name": "to",
          "type": "address"
        },
        {
          "internalType": "uint256",
          "name": "tokenId",
          "type": "uint256"
        }
      ],
      "name": "safeTransferFrom",
      "outputs": [],
      "stateMutability": "nonpayable",
      "type": "function"
    },
    {
      "inputs": [
        {
          "internalType": "address",
          "name": "from",
          "type": "address"
        },
        {
          "internalType": "address",
          "name": "to",
          "type": "address"
        },
        {
          "internalType": "uint256",
          "name": "tokenId",
          "type": "uint256"
        },
        {
          "internalType": "bytes",
          "name": "data",
          "type": "bytes"
        }
      ],
      "name": "safeTransferFrom",
      "outputs": [],
      "stateMutability": "nonpayable",
      "type": "function"
    },
    {
      "inputs": [
        {
          "internalType": "uint256",
          "name": "contentId",
          "type": "uint256"
        },
        {
          "internalType": "uint256",
          "name": "price",
          "type": "uint256"
        },
        {
          "internalType": "uint32",
          "name": "expirationTime",
          "type": "uint32"
        }
      ],
      "name": "setAccess",
      "outputs": [],
      "stateMutability": "nonpayable",
      "type": "function"
    },
    {
      "inputs": [
        {
          "internalType": "address",
          "name": "operator",
          "type": "address"
        },
        {
          "internalType": "bool",
          "name": "approved",
          "type": "bool"
        }
      ],
      "name": "setApprovalForAll",
      "outputs": [],
      "stateMutability": "nonpayable",
      "type": "function"
    },
    {
      "inputs": [
        {
          "internalType": "bytes4",
          "name": "interfaceId",
          "type": "bytes4"
        }
      ],
      "name": "supportsInterface",
      "outputs": [
        {
          "internalType": "bool",
          "name": "",
          "type": "bool"
        }
      ],
      "stateMutability": "view",
      "type": "function"
    },
    {
      "inputs": [],
      "name": "symbol",
      "outputs": [
        {
          "internalType": "string",
          "name": "",
          "type": "string"
        }
      ],
      "stateMutability": "view",
      "type": "function"
    },
    {
      "inputs": [
        {
          "internalType": "uint256",
          "name": "index",
          "type": "uint256"
        }
      ],
      "name": "tokenByIndex",
      "outputs": [
        {
          "internalType": "uint256",
          "name": "",
          "type": "uint256"
        }
      ],
      "stateMutability": "view",
      "type": "function"
    },
    {
      "inputs": [
        {
          "internalType": "address",
          "name": "owner",
          "type": "address"
        },
        {
          "internalType": "uint256",
          "name": "index",
          "type": "uint256"
        }
      ],
      "name": "tokenOfOwnerByIndex",
      "outputs": [
        {
          "internalType": "uint256",
          "name": "",
          "type": "uint256"
        }
      ],
      "stateMutability": "view",
      "type": "function"
    },
    {
      "inputs": [
        {
          "internalType": "uint256",
          "name": "tokenId",
          "type": "uint256"
        }
      ],
      "name": "tokenURI",
      "outputs": [
        {
          "internalType": "string",
          "name": "",
          "type": "string"
        }
      ],
      "stateMutability": "view",
      "type": "function"
    },
    {
      "inputs": [],
      "name": "totalSupply",
      "outputs": [
        {
          "internalType": "uint256",
          "name": "",
          "type": "uint256"
        }
      ],
      "stateMutability": "view",
      "type": "function"
    },
    {
      "inputs": [
        {
          "internalType": "address",
          "name": "from",
          "type": "address"
        },
        {
          "internalType": "address",
          "name": "to",
          "type": "address"
        },
        {
          "internalType": "uint256",
          "name": "tokenId",
          "type": "uint256"
        }
      ],
      "name": "transferFrom",
      "outputs": [],
      "stateMutability": "nonpayable",
      "type": "function"
    }
  ],
  "bytecode": "0x60806040523480156200001157600080fd5b5060405162001f0238038062001f028339810160408190526200003491620000dc565b6040518060400160405280601c81526020017f4970616c204761746564204b6e6f776c65646765204d616e61676572000000008152506040518060400160405280600381526020016249474960e81b8152508181816000908162000099919062000242565b506001620000a8828262000242565b505050505080600d9081620000be919062000242565b50506200030e565b634e487b7160e01b600052604160045260246000fd5b60006020808385031215620000f057600080fd5b82516001600160401b03808211156200010857600080fd5b818501915085601f8301126200011d57600080fd5b815181811115620001325762000132620000c6565b604051601f8201601f19908116603f011681019083821181831017156200015d576200015d620000c6565b8160405282815288868487010111156200017657600080fd5b600093505b828410156200019a57848401860151818501870152928501926200017b565b600086848301015280965050505050505092915050565b600181811c90821680620001c657607f821691505b602082108103620001e757634e487b7160e01b600052602260045260246000fd5b50919050565b601f8211156200023d576000816000526020600020601f850160051c81016020861015620002185750805b601f850160051c820191505b81811015620002395782815560010162000224565b5050505b505050565b81516001600160401b038111156200025e576200025e620000c6565b62000276816200026f8454620001b1565b84620001ed565b602080601f831160018114620002ae5760008415620002955750858301515b600019600386901b1c1916600185901b17855562000239565b600085815260208120601f198616915b82811015620002df57888601518255948401946001909101908401620002be565b5085821015620002fe5787850151600019600388901b60f8161c191681555b5050505050600190811b01905550565b611be4806200031e6000396000f3fe608060405234801561001057600080fd5b50600436106101575760003560e01c80634f6ccce7116100c3578063a22cb4651161007c578063a22cb4651461033c578063b4ce37d21461034f578063b88d4fde14610357578063c87b56dd1461036a578063d10e2e191461037d578063e985e9c51461039f57600080fd5b80634f6ccce7146102705780636352211e1461028357806370a08231146102965780638b6df91a146102a95780638c210975146102ff57806395d89b411461033457600080fd5b80630d4d1513116101155780630d4d1513146101ff57806318160ddd1461021257806323b872dd146102245780632f745c5914610237578063362a3f8c1461024a57806342842e0e1461025d57600080fd5b8062fda7a71461015c57806301ffc9a71461017157806306fdde0314610199578063081812fc146101ae578063095ea7b3146101d957806309a937fb146101ec575b600080fd5b61016f61016a3660046115bc565b6103b2565b005b61018461017f3660046115ee565b6103e9565b60405190151581526020015b60405180910390f35b6101a16103fa565b604051610190919061165b565b6101c16101bc3660046115bc565b61048c565b6040516001600160a01b039091168152602001610190565b61016f6101e736600461168a565b6104b5565b6101846101fa3660046116b4565b6104c4565b61016f61020d3660046116b4565b610526565b6008545b604051908152602001610190565b61016f6102323660046116f0565b610584565b61021661024536600461168a565b61060e565b61016f61025836600461172c565b610673565b61016f61026b3660046116f0565b610684565b61021661027e3660046115bc565b61069f565b6101c16102913660046115bc565b6106f8565b6102166102a436600461176e565b610703565b6102de6102b73660046115bc565b600a6020526000908152604090208054600182015460029092015490919063ffffffff1683565b60408051938452602084019290925263ffffffff1690820152606001610190565b6102de61030d3660046115bc565b600b6020526000908152604090208054600182015460029092015490919063ffffffff1683565b6101a161074b565b61016f61034a366004611797565b61075a565b6101a1610765565b61016f6103653660046117e4565b6107f3565b6101a16103783660046115bc565b61080a565b61018461038b3660046115bc565b6000908152600a6020526040902054151590565b6101846103ad3660046118c0565b610815565b60006103be3383610843565b6000908152600a602052604081208181556001810191909155600201805463ffffffff191690555050565b60006103f48261088a565b92915050565b606060008054610409906118f3565b80601f0160208091040260200160405190810160405280929190818152602001828054610435906118f3565b80156104825780601f1061045757610100808354040283529160200191610482565b820191906000526020600020905b81548152906001019060200180831161046557829003601f168201915b5050505050905090565b6000610497826108af565b506000828152600460205260409020546001600160a01b03166103f4565b6104c08282336108e8565b5050565b6000805b6104d185610703565b811015610519576104e28585610843565b600b60006104f0868561060e565b8152602001908152602001600020600001540361051157600191505061051f565b6001016104c8565b50600090505b9392505050565b6105318383836108f5565b6000600161053e60085490565b610548919061192d565b905061057e81600d61055984610a04565b60405160200161056a92919061194e565b604051602081830303815290604052610a97565b50505050565b6001600160a01b0382166105b357604051633250574960e11b8152600060048201526024015b60405180910390fd5b60006105c0838333610ae7565b9050836001600160a01b0316816001600160a01b03161461057e576040516364283d7b60e01b81526001600160a01b03808616600483015260248201849052821660448201526064016105aa565b600061061983610703565b821061064a5760405163295f44f760e21b81526001600160a01b0384166004820152602481018390526044016105aa565b506001600160a01b03919091166000908152600660209081526040808320938352929052205490565b61067f33848484610afc565b505050565b61067f838383604051806020016040528060008152506107f3565b60006106aa60085490565b82106106d35760405163295f44f760e21b815260006004820152602481018390526044016105aa565b600882815481106106e6576106e66119d5565b90600052602060002001549050919050565b60006103f4826108af565b60006001600160a01b03821661072f576040516322718ad960e21b8152600060048201526024016105aa565b506001600160a01b031660009081526003602052604090205490565b606060018054610409906118f3565b6104c0338383610b60565b600d8054610772906118f3565b80601f016020809104026020016040519081016040528092919081815260200182805461079e906118f3565b80156107eb5780601f106107c0576101008083540402835291602001916107eb565b820191906000526020600020905b8154815290600101906020018083116107ce57829003601f168201915b505050505081565b6107fe848484610584565b61057e84848484610bff565b60606103f482610d21565b6001600160a01b03918216600090815260056020908152604080832093909416825291909152205460ff1690565b6040516bffffffffffffffffffffffff19606084901b1660208201526034810182905260009060540160405160208183030381529060405280519060200120905092915050565b60006001600160e01b03198216632483248360e11b14806103f457506103f482610e2a565b6000818152600260205260408120546001600160a01b0316806103f457604051637e27328960e01b8152600481018490526024016105aa565b61067f8383836001610e35565b60006109018484610843565b60405163d10e2e1960e01b815260048101829052909150309063d10e2e1990602401602060405180830381865afa158015610940573d6000803e3d6000fd5b505050506040513d601f19601f8201168201806040525081019061096491906119eb565b61098457604051636bbe423d60e11b8152600481018290526024016105aa565b600061098f60085490565b604080516060810182528481526000858152600a6020908152838220805482850190815260029182015463ffffffff908116868801908152888652600b909452959093209351845591516001840155519101805463ffffffff19169190921617905590506109fd8382610f3b565b5050505050565b60606000610a1183610f55565b600101905060008167ffffffffffffffff811115610a3157610a316117ce565b6040519080825280601f01601f191660200182016040528015610a5b576020820181803683370190505b5090508181016020015b600019016f181899199a1a9b1b9c1cb0b131b232b360811b600a86061a8153600a8504945084610a6557509392505050565b6000828152600c60205260409020610aaf8282611a58565b506040518281527ff8e1a15aba9398e019f0b49df1a4fde98ee17ae345cb5f6b5e2c27f5033e8ce79060200160405180910390a15050565b6000610af484848461102d565b949350505050565b6000610b088585610843565b60408051606081018252958652602080870195865263ffffffff9485168783019081526000938452600a909152912094518555925160018501555090516002909201805463ffffffff19169290911691909117905550565b6001600160a01b038216610b9257604051630b61174360e31b81526001600160a01b03831660048201526024016105aa565b6001600160a01b03838116600081815260056020908152604080832094871680845294825291829020805460ff191686151590811790915591519182527f17307eab39ab6107e8899845ad3d59bd9653f200f220920489ca2b5937696c31910160405180910390a3505050565b6001600160a01b0383163b1561057e57604051630a85bd0160e11b81526001600160a01b0384169063150b7a0290610c41903390889087908790600401611b18565b6020604051808303816000875af1925050508015610c7c575060408051601f3d908101601f19168201909252610c7991810190611b55565b60015b610ce5573d808015610caa576040519150601f19603f3d011682016040523d82523d6000602084013e610caf565b606091505b508051600003610cdd57604051633250574960e11b81526001600160a01b03851660048201526024016105aa565b805181602001fd5b6001600160e01b03198116630a85bd0160e11b146109fd57604051633250574960e11b81526001600160a01b03851660048201526024016105aa565b6060610d2c826108af565b506000828152600c602052604081208054610d46906118f3565b80601f0160208091040260200160405190810160405280929190818152602001828054610d72906118f3565b8015610dbf5780601f10610d9457610100808354040283529160200191610dbf565b820191906000526020600020905b815481529060010190602001808311610da257829003601f168201915b505050505090506000610ddd60408051602081019091526000815290565b90508051600003610def575092915050565b815115610e21578082604051602001610e09929190611b72565b60405160208183030381529060405292505050919050565b610af48461103a565b60006103f4826110ae565b8080610e4957506001600160a01b03821615155b15610f0b576000610e59846108af565b90506001600160a01b03831615801590610e855750826001600160a01b0316816001600160a01b031614155b8015610e985750610e968184610815565b155b15610ec15760405163a9fbf51f60e01b81526001600160a01b03841660048201526024016105aa565b8115610f095783856001600160a01b0316826001600160a01b03167f8c5be1e5ebec7d5bd14f71427d1e84f3dd0314c0f7b2291e5b200ac8c7c3b92560405160405180910390a45b505b5050600090815260046020526040902080546001600160a01b0319166001600160a01b0392909216919091179055565b6104c08282604051806020016040528060008152506110d3565b60008072184f03e93ff9f4daa797ed6e38ed64bf6a1f0160401b8310610f945772184f03e93ff9f4daa797ed6e38ed64bf6a1f0160401b830492506040015b6d04ee2d6d415b85acef81000000008310610fc0576d04ee2d6d415b85acef8100000000830492506020015b662386f26fc100008310610fde57662386f26fc10000830492506010015b6305f5e1008310610ff6576305f5e100830492506008015b612710831061100a57612710830492506004015b6064831061101c576064830492506002015b600a83106103f45760010192915050565b6000610af48484846110ea565b6060611045826108af565b50600061105d60408051602081019091526000815290565b9050600081511161107d576040518060200160405280600081525061051f565b8061108784610a04565b604051602001611098929190611b72565b6040516020818303038152906040529392505050565b60006001600160e01b0319821663780e9d6360e01b14806103f457506103f4826111b7565b6110dd8383611207565b61067f6000848484610bff565b6000806110f885858561126c565b90506001600160a01b0381166111555761115084600880546000838152600960205260408120829055600182018355919091527ff3f7a9fe364faab93b216da50a3214154f22a0a2b415b23a84c8169e8b636ee30155565b611178565b846001600160a01b0316816001600160a01b031614611178576111788185611365565b6001600160a01b0385166111945761118f846113f6565b610af4565b846001600160a01b0316816001600160a01b031614610af457610af485856114a5565b60006001600160e01b031982166380ac58cd60e01b14806111e857506001600160e01b03198216635b5e139f60e01b145b806103f457506301ffc9a760e01b6001600160e01b03198316146103f4565b6001600160a01b03821661123157604051633250574960e11b8152600060048201526024016105aa565b600061123f83836000610ae7565b90506001600160a01b0381161561067f576040516339e3563760e11b8152600060048201526024016105aa565b6000828152600260205260408120546001600160a01b0390811690831615611299576112998184866114f5565b6001600160a01b038116156112d7576112b6600085600080610e35565b6001600160a01b038116600090815260036020526040902080546000190190555b6001600160a01b03851615611306576001600160a01b0385166000908152600360205260409020805460010190555b60008481526002602052604080822080546001600160a01b0319166001600160a01b0389811691821790925591518793918516917fddf252ad1be2c89b69c2b068fc378daa952ba7f163c4a11628f55a4df523b3ef91a4949350505050565b600061137083610703565b6000838152600760205260409020549091508082146113c3576001600160a01b03841660009081526006602090815260408083208584528252808320548484528184208190558352600790915290208190555b5060009182526007602090815260408084208490556001600160a01b039094168352600681528383209183525290812055565b6008546000906114089060019061192d565b60008381526009602052604081205460088054939450909284908110611430576114306119d5565b906000526020600020015490508060088381548110611451576114516119d5565b600091825260208083209091019290925582815260099091526040808220849055858252812055600880548061148957611489611b98565b6001900381819060005260206000200160009055905550505050565b600060016114b284610703565b6114bc919061192d565b6001600160a01b039093166000908152600660209081526040808320868452825280832085905593825260079052919091209190915550565b611500838383611559565b61067f576001600160a01b03831661152e57604051637e27328960e01b8152600481018290526024016105aa565b60405163177e802f60e01b81526001600160a01b0383166004820152602481018290526044016105aa565b60006001600160a01b03831615801590610af45750826001600160a01b0316846001600160a01b0316148061159357506115938484610815565b80610af45750506000908152600460205260409020546001600160a01b03908116911614919050565b6000602082840312156115ce57600080fd5b5035919050565b6001600160e01b0319811681146115eb57600080fd5b50565b60006020828403121561160057600080fd5b813561051f816115d5565b60005b8381101561162657818101518382015260200161160e565b50506000910152565b6000815180845261164781602086016020860161160b565b601f01601f19169290920160200192915050565b60208152600061051f602083018461162f565b80356001600160a01b038116811461168557600080fd5b919050565b6000806040838503121561169d57600080fd5b6116a68361166e565b946020939093013593505050565b6000806000606084860312156116c957600080fd5b6116d28461166e565b9250602084013591506116e76040850161166e565b90509250925092565b60008060006060848603121561170557600080fd5b61170e8461166e565b925061171c6020850161166e565b9150604084013590509250925092565b60008060006060848603121561174157600080fd5b8335925060208401359150604084013563ffffffff8116811461176357600080fd5b809150509250925092565b60006020828403121561178057600080fd5b61051f8261166e565b80151581146115eb57600080fd5b600080604083850312156117aa57600080fd5b6117b38361166e565b915060208301356117c381611789565b809150509250929050565b634e487b7160e01b600052604160045260246000fd5b600080600080608085870312156117fa57600080fd5b6118038561166e565b93506118116020860161166e565b925060408501359150606085013567ffffffffffffffff8082111561183557600080fd5b818701915087601f83011261184957600080fd5b81358181111561185b5761185b6117ce565b604051601f8201601f19908116603f01168101908382118183101715611883576118836117ce565b816040528281528a602084870101111561189c57600080fd5b82602086016020830137600060208483010152809550505050505092959194509250565b600080604083850312156118d357600080fd5b6118dc8361166e565b91506118ea6020840161166e565b90509250929050565b600181811c9082168061190757607f821691505b60208210810361192757634e487b7160e01b600052602260045260246000fd5b50919050565b818103818111156103f457634e487b7160e01b600052601160045260246000fd5b600080845461195c816118f3565b600182811680156119745760018114611989576119b8565b60ff19841687528215158302870194506119b8565b8860005260208060002060005b858110156119af5781548a820152908401908201611996565b50505082870194505b5050505083516119cc81836020880161160b565b01949350505050565b634e487b7160e01b600052603260045260246000fd5b6000602082840312156119fd57600080fd5b815161051f81611789565b601f82111561067f576000816000526020600020601f850160051c81016020861015611a315750805b601f850160051c820191505b81811015611a5057828155600101611a3d565b505050505050565b815167ffffffffffffffff811115611a7257611a726117ce565b611a8681611a8084546118f3565b84611a08565b602080601f831160018114611abb5760008415611aa35750858301515b600019600386901b1c1916600185901b178555611a50565b600085815260208120601f198616915b82811015611aea57888601518255948401946001909101908401611acb565b5085821015611b085787850151600019600388901b60f8161c191681555b5050505050600190811b01905550565b6001600160a01b0385811682528416602082015260408101839052608060608201819052600090611b4b9083018461162f565b9695505050505050565b600060208284031215611b6757600080fd5b815161051f816115d5565b60008351611b8481846020880161160b565b8351908301906119cc81836020880161160b565b634e487b7160e01b600052603160045260246000fdfea264697066735822122038b622174b27e761de21e3ea821a3a492cc78504c9a4b4555a117ec146390ce864736f6c63430008180033",
  "linkReferences": {},
  "deployedLinkReferences": {}
}